{"abi":[{"type":"function","name":"addCredential","inputs":[{"name":"pubKeyX","type":"uint256","internalType":"uint256"},{"name":"pubKeyY","type":"uint256","internalType":"uint256"},{"name":"requireUV","type":"bool","internalType":"bool"}],"outputs":[],"stateMutability":"nonpayable"},{"type":"function","name":"credentialDetails","inputs":[{"name":"credentialId","type":"bytes32","internalType":"bytes32"},{"name":"account","type":"address","internalType":"address"}],"outputs":[{"name":"pubKeyX","type":"uint256","internalType":"uint256"},{"name":"pubKeyY","type":"uint256","internalType":"uint256"},{"name":"requireUV","type":"bool","internalType":"bool"}],"stateMutability":"view"},{"type":"function","name":"generateCredentialId","inputs":[{"name":"pubKeyX","type":"uint256","internalType":"uint256"},{"name":"pubKeyY","type":"uint256","internalType":"uint256"},{"name":"requireUV","type":"bool","internalType":"bool"},{"name":"account","type":"address","internalType":"address"}],"outputs":[{"name":"","type":"bytes32","internalType":"bytes32"}],"stateMutability":"pure"},{"type":"function","name":"getCredentialCount","inputs":[{"name":"account","type":"address","internalType":"address"}],"outputs":[{"name":"count","type":"uint256","internalType":"uint256"}],"stateMutability":"view"},{"type":"function","name":"getCredentialIds","inputs":[{"name":"account","type":"address","internalType":"address"}],"outputs":[{"name":"credentialsIds","type":"bytes32[]","internalType":"bytes32[]"}],"stateMutability":"view"},{"type":"function","name":"getCredentialInfo","inputs":[{"name":"credentialId","type":"bytes32","internalType":"bytes32"},{"name":"account","type":"address","internalType":"address"}],"outputs":[{"name":"pubKeyX","type":"uint256","internalType":"uint256"},{"name":"pubKeyY","type":"uint256","internalType":"uint256"},{"name":"requireUV","type":"bool","internalType":"bool"}],"stateMutability":"view"},{"type":"function","name":"hasCredential","inputs":[{"name":"pubKeyX","type":"uint256","internalType":"uint256"},{"name":"pubKeyY","type":"uint256","internalType":"uint256"},{"name":"requireUV","type":"bool","internalType":"bool"},{"name":"account","type":"address","internalType":"address"}],"outputs":[{"name":"exists","type":"bool","internalType":"bool"}],"stateMutability":"view"},{"type":"function","name":"hasCredentialById","inputs":[{"name":"credentialId","type":"bytes32","internalType":"bytes32"},{"name":"account","type":"address","internalType":"address"}],"outputs":[{"name":"exists","type":"bool","internalType":"bool"}],"stateMutability":"view"},{"type":"function","name":"isInitialized","inputs":[{"name":"smartAccount","type":"address","internalType":"address"}],"outputs":[{"name":"","type":"bool","internalType":"bool"}],"stateMutability":"view"},{"type":"function","name":"isModuleType","inputs":[{"name":"typeID","type":"uint256","internalType":"uint256"}],"outputs":[{"name":"","type":"bool","internalType":"bool"}],"stateMutability":"pure"},{"type":"function","name":"isValidSignatureWithSender","inputs":[{"name":"","type":"address","internalType":"address"},{"name":"hash","type":"bytes32","internalType":"bytes32"},{"name":"data","type":"bytes","internalType":"bytes"}],"outputs":[{"name":"","type":"bytes4","internalType":"bytes4"}],"stateMutability":"view"},{"type":"function","name":"name","inputs":[],"outputs":[{"name":"","type":"string","internalType":"string"}],"stateMutability":"pure"},{"type":"function","name":"onInstall","inputs":[{"name":"data","type":"bytes","internalType":"bytes"}],"outputs":[],"stateMutability":"nonpayable"},{"type":"function","name":"onUninstall","inputs":[{"name":"","type":"bytes","internalType":"bytes"}],"outputs":[],"stateMutability":"nonpayable"},{"type":"function","name":"removeCredential","inputs":[{"name":"pubKeyX","type":"uint256","internalType":"uint256"},{"name":"pubKeyY","type":"uint256","internalType":"uint256"},{"name":"requireUV","type":"bool","internalType":"bool"}],"outputs":[],"stateMutability":"nonpayable"},{"type":"function","name":"setThreshold","inputs":[{"name":"_threshold","type":"uint256","internalType":"uint256"}],"outputs":[],"stateMutability":"nonpayable"},{"type":"function","name":"threshold","inputs":[{"name":"account","type":"address","internalType":"address"}],"outputs":[{"name":"threshold","type":"uint256","internalType":"uint256"}],"stateMutability":"view"},{"type":"function","name":"validateSignatureWithData","inputs":[{"name":"hash","type":"bytes32","internalType":"bytes32"},{"name":"signature","type":"bytes","internalType":"bytes"},{"name":"data","type":"bytes","internalType":"bytes"}],"outputs":[{"name":"","type":"bool","internalType":"bool"}],"stateMutability":"view"},{"type":"function","name":"validateUserOp","inputs":[{"name":"userOp","type":"tuple","internalType":"struct PackedUserOperation","components":[{"name":"sender","type":"address","internalType":"address"},{"name":"nonce","type":"uint256","internalType":"uint256"},{"name":"initCode","type":"bytes","internalType":"bytes"},{"name":"callData","type":"bytes","internalType":"bytes"},{"name":"accountGasLimits","type":"bytes32","internalType":"bytes32"},{"name":"preVerificationGas","type":"uint256","internalType":"uint256"},{"name":"gasFees","type":"bytes32","internalType":"bytes32"},{"name":"paymasterAndData","type":"bytes","internalType":"bytes"},{"name":"signature","type":"bytes","internalType":"bytes"}]},{"name":"userOpHash","type":"bytes32","internalType":"bytes32"}],"outputs":[{"name":"","type":"uint256","internalType":"ERC7579ValidatorBase.ValidationData"}],"stateMutability":"view"},{"type":"function","name":"version","inputs":[],"outputs":[{"name":"","type":"string","internalType":"string"}],"stateMutability":"pure"},{"type":"event","name":"CredentialAdded","inputs":[{"name":"account","type":"address","indexed":true,"internalType":"address"},{"name":"credentialId","type":"bytes32","indexed":true,"internalType":"bytes32"}],"anonymous":false},{"type":"event","name":"CredentialRemoved","inputs":[{"name":"account","type":"address","indexed":true,"internalType":"address"},{"name":"credentialId","type":"bytes32","indexed":true,"internalType":"bytes32"}],"anonymous":false},{"type":"event","name":"ModuleInitialized","inputs":[{"name":"account","type":"address","indexed":true,"internalType":"address"}],"anonymous":false},{"type":"event","name":"ModuleUninitialized","inputs":[{"name":"account","type":"address","indexed":true,"internalType":"address"}],"anonymous":false},{"type":"event","name":"ThresholdSet","inputs":[{"name":"account","type":"address","indexed":true,"internalType":"address"},{"name":"threshold","type":"uint256","indexed":false,"internalType":"uint256"}],"anonymous":false},{"type":"error","name":"CannotRemoveCredential","inputs":[]},{"type":"error","name":"CredentialAlreadyExists","inputs":[]},{"type":"error","name":"InvalidCredential","inputs":[{"name":"credentialId","type":"bytes32","internalType":"bytes32"}]},{"type":"error","name":"InvalidPublicKey","inputs":[]},{"type":"error","name":"InvalidThreshold","inputs":[]},{"type":"error","name":"MaxCredentialsReached","inputs":[]},{"type":"error","name":"ModuleAlreadyInitialized","inputs":[{"name":"smartAccount","type":"address","internalType":"address"}]},{"type":"error","name":"NotInitialized","inputs":[{"name":"smartAccount","type":"address","internalType":"address"}]},{"type":"error","name":"NotUnique","inputs":[]},{"type":"error","name":"ThresholdNotSet","inputs":[]}],"bytecode":{"object":"0x6080604052348015600e575f80fd5b506150688061001c5f395ff3fe608060405234801561000f575f80fd5b506004361061012a575f3560e01c80638a91b0e3116100ab578063c9fd9c9b1161006f578063c9fd9c9b1461037a578063d60b347f146103aa578063ecd05961146103da578063f0ccd0d31461040a578063f551e2ee1461043a5761012a565b80638a91b0e3146102b2578063940d3840146102ce578063960bfe04146102fe578063970032031461031a578063c86ec2bf1461034a5761012a565b806354fd4d50116100f257806354fd4d50146101fa5780636a839d7d146102185780636d61fe701461024a5780637a63a1fd146102665780637ef693bf146102825761012a565b806306fdde031461012e5780632d4059951461014c5780633bf586b41461017c57806340ecfa83146101ac57806348533fde146101de575b5f80fd5b61013661046a565b6040516101439190613d09565b60405180910390f35b61016660048036038101906101619190613d94565b6104a7565b6040516101739190613dd7565b60405180910390f35b61019660048036038101906101919190613e4f565b6104c2565b6040516101a39190613ecb565b60405180910390f35b6101c660048036038101906101c19190613f0e565b6104fa565b6040516101d593929190613f5b565b60405180910390f35b6101f860048036038101906101f39190613f90565b610537565b005b610202610731565b60405161020f9190613d09565b60405180910390f35b610232600480360381019061022d9190613f0e565b61076e565b60405161024193929190613f5b565b60405180910390f35b610264600480360381019061025f9190614041565b610814565b005b610280600480360381019061027b9190613f90565b610c64565b005b61029c60048036038101906102979190613f0e565b610e89565b6040516102a9919061408c565b60405180910390f35b6102cc60048036038101906102c79190614041565b610ea7565b005b6102e860048036038101906102e391906140a5565b610ff7565b6040516102f5919061408c565b60405180910390f35b61031860048036038101906103139190614136565b611095565b005b610334600480360381019061032f9190614184565b6111fc565b6040516103419190614217565b60405180910390f35b610364600480360381019061035f9190613d94565b611247565b6040516103719190613dd7565b60405180910390f35b610394600480360381019061038f9190613e4f565b61125c565b6040516103a1919061408c565b60405180910390f35b6103c460048036038101906103bf9190613d94565b61128c565b6040516103d1919061408c565b60405180910390f35b6103f460048036038101906103ef9190614136565b6112d5565b604051610401919061408c565b60405180910390f35b610424600480360381019061041f9190613d94565b6112ec565b60405161043191906142e7565b60405180910390f35b610454600480360381019061044f9190614307565b611308565b60405161046191906143b2565b60405180910390f35b60606040518060400160405280601181526020017f576562417574686e56616c696461746f72000000000000000000000000000000815250905090565b5f6104bb825f61134290919063ffffffff16565b9050919050565b5f848484846040516020016104da94939291906143da565b604051602081830303815290604052805190602001209050949350505050565b6002602052815f5260405f20602052805f5260405f205f9150915050805f015490806001015490806002015f9054906101000a900460ff16905083565b5f3390506105448161128c565b61058557806040517ff91bd6f100000000000000000000000000000000000000000000000000000000815260040161057c919061441d565b60405180910390fd5b5f610592858585856104c2565b905060035f8373ffffffffffffffffffffffffffffffffffffffff1673ffffffffffffffffffffffffffffffffffffffff1681526020019081526020015f20546105e5835f61134290919063ffffffff16565b1161061c576040517f040053de00000000000000000000000000000000000000000000000000000000815260040160405180910390fd5b5f61063283835f6113579092919063ffffffff16565b90508061067657816040517fb8a051b700000000000000000000000000000000000000000000000000000000815260040161066d9190613ecb565b60405180910390fd5b60025f8381526020019081526020015f205f8473ffffffffffffffffffffffffffffffffffffffff1673ffffffffffffffffffffffffffffffffffffffff1681526020019081526020015f205f8082015f9055600182015f9055600282015f6101000a81549060ff02191690555050818373ffffffffffffffffffffffffffffffffffffffff167f4d46123075b428acdd770efdf0000621c336b9169989cc432c4dc75ff49d32d860405160405180910390a3505050505050565b60606040518060400160405280600581526020017f312e302e30000000000000000000000000000000000000000000000000000000815250905090565b5f805f8060025f8781526020019081526020015f205f8673ffffffffffffffffffffffffffffffffffffffff1673ffffffffffffffffffffffffffffffffffffffff1681526020019081526020015f206040518060600160405290815f820154815260200160018201548152602001600282015f9054906101000a900460ff1615151515815250509050805f015181602001518260400151935093509350509250925092565b5f80838381019061082591906145d7565b915091505f815190505f8303610867576040517f34b46f4800000000000000000000000000000000000000000000000000000000815260040160405180910390fd5b828110156108a1576040517faabd5a0900000000000000000000000000000000000000000000000000000000815260040160405180910390fd5b60208111156108dc576040517f4028a50d00000000000000000000000000000000000000000000000000000000815260040160405180910390fd5b5f3390508360035f8373ffffffffffffffffffffffffffffffffffffffff1673ffffffffffffffffffffffffffffffffffffffff1681526020019081526020015f20819055505f8267ffffffffffffffff81111561093d5761093c614436565b5b60405190808252806020026020018201604052801561096b5781602001602082028036833780820191505090505b5090505f5b83811015610c17575f85828151811061098c5761098b614631565b5b60200260200101515f015114806109c057505f8582815181106109b2576109b1614631565b5b602002602001015160200151145b156109f7576040517fa2d0fee800000000000000000000000000000000000000000000000000000000815260040160405180910390fd5b5f610a5d868381518110610a0e57610a0d614631565b5b60200260200101515f0151878481518110610a2c57610a2b614631565b5b602002602001015160200151888581518110610a4b57610a4a614631565b5b602002602001015160400151876104c2565b905080838381518110610a7357610a72614631565b5b6020026020010181815250506040518060600160405280878481518110610a9d57610a9c614631565b5b60200260200101515f01518152602001878481518110610ac057610abf614631565b5b6020026020010151602001518152602001878481518110610ae457610ae3614631565b5b602002602001015160400151151581525060025f8381526020019081526020015f205f8673ffffffffffffffffffffffffffffffffffffffff1673ffffffffffffffffffffffffffffffffffffffff1681526020019081526020015f205f820151815f0155602082015181600101556040820151816002015f6101000a81548160ff0219169083151502179055509050505f610b8b85835f61136e9092919063ffffffff16565b905080610bc4576040517f8c9946f900000000000000000000000000000000000000000000000000000000815260040160405180910390fd5b818573ffffffffffffffffffffffffffffffffffffffff167fc72f5aabeb29ac80439775ff547ad1442c87fd0dbb35cfaff04dbd2bc7764b2860405160405180910390a350508080600101915050610970565b508173ffffffffffffffffffffffffffffffffffffffff167f27b541a16df0902e262f34789782092ab25125513b8ed73608e802951771b92860405160405180910390a250505050505050565b5f339050610c718161128c565b610cb257806040517ff91bd6f1000000000000000000000000000000000000000000000000000000008152600401610ca9919061441d565b60405180910390fd5b5f841480610cbf57505f83145b15610cf6576040517fa2d0fee800000000000000000000000000000000000000000000000000000000815260040160405180910390fd5b5f610d03858585856104c2565b90506020610d1a835f61134290919063ffffffff16565b10610d51576040517f4028a50d00000000000000000000000000000000000000000000000000000000815260040160405180910390fd5b604051806060016040528086815260200185815260200184151581525060025f8381526020019081526020015f205f8473ffffffffffffffffffffffffffffffffffffffff1673ffffffffffffffffffffffffffffffffffffffff1681526020019081526020015f205f820151815f0155602082015181600101556040820151816002015f6101000a81548160ff0219169083151502179055509050505f610e0483835f61136e9092919063ffffffff16565b905080610e3d576040517f724efe9100000000000000000000000000000000000000000000000000000000815260040160405180910390fd5b818373ffffffffffffffffffffffffffffffffffffffff167fc72f5aabeb29ac80439775ff547ad1442c87fd0dbb35cfaff04dbd2bc7764b2860405160405180910390a3505050505050565b5f610e9f82845f6113859092919063ffffffff16565b905092915050565b5f3390505f610eb5826112ec565b90505f5b8151811015610f585760025f838381518110610ed857610ed7614631565b5b602002602001015181526020019081526020015f205f8473ffffffffffffffffffffffffffffffffffffffff1673ffffffffffffffffffffffffffffffffffffffff1681526020019081526020015f205f8082015f9055600182015f9055600282015f6101000a81549060ff021916905550508080600101915050610eb9565b50610f6c825f61139c90919063ffffffff16565b5f60035f8473ffffffffffffffffffffffffffffffffffffffff1673ffffffffffffffffffffffffffffffffffffffff1681526020019081526020015f20819055508173ffffffffffffffffffffffffffffffffffffffff167f9d00629762554452d03c3b45626436df6ca1c3795d05d04df882f6db481b1be060405160405180910390a250505050565b5f80838381019061100891906147cb565b905061101781604001516113ac565b61102481604001516113c0565b5f86868101906110349190614b13565b90505f82604001515190508260600151518114611056575f935050505061108c565b5f8360200151148061106b5750808360200151115b1561107b575f935050505061108c565b6110868983856113d4565b93505050505b95945050505050565b5f3390506110a28161128c565b6110e357806040517ff91bd6f10000000000000000000000000000000000000000000000000000000081526004016110da919061441d565b60405180910390fd5b5f820361111c576040517faabd5a0900000000000000000000000000000000000000000000000000000000815260040160405180910390fd5b81611130825f61134290919063ffffffff16565b1015611168576040517faabd5a0900000000000000000000000000000000000000000000000000000000815260040160405180910390fd5b8160035f8373ffffffffffffffffffffffffffffffffffffffff1673ffffffffffffffffffffffffffffffffffffffff1681526020019081526020015f20819055508073ffffffffffffffffffffffffffffffffffffffff167ff7e18aa0532694077d6fc7df02e85d86b91ba964f958d1949d45c5776d36eb6e836040516111f09190613dd7565b60405180910390a25050565b5f8061122a845f0160208101906112139190613d94565b84868061010001906112259190614b66565b611501565b9050801561123b575f915050611241565b60019150505b92915050565b6003602052805f5260405f205f915090505481565b5f8061126a868686866104c2565b905061128183825f6113859092919063ffffffff16565b915050949350505050565b5f8060035f8473ffffffffffffffffffffffffffffffffffffffff1673ffffffffffffffffffffffffffffffffffffffff1681526020019081526020015f205414159050919050565b5f60018214806112e55750600782145b9050919050565b6060611301825f6116ea90919063ffffffff16565b9050919050565b5f8061131633868686611501565b9050801561132e57631626ba7e60e01b91505061133a565b63ffffffff60e01b9150505b949350505050565b5f61134f835f018361170b565b905092915050565b5f611365845f018484611729565b90509392505050565b5f61137c845f0184846118c4565b90509392505050565b5f611393845f018484611966565b90509392505050565b6113a8825f01826119c2565b5050565b6113bd6113b882611a1b565b611a25565b50565b6113d16113cc82611a1b565b611c6f565b50565b5f80835190505f8114806113eb5750826020015181105b156113f9575f9150506114fa565b5f805b828110156114f3575f876040516020016114169190613ecb565b60405160208183030381529060405290505f6114b8828860600151858151811061144357611442614631565b5b6020026020010151604001518a868151811061146257611461614631565b5b60200260200101518a60600151878151811061148157611480614631565b5b60200260200101515f01518b6060015188815181106114a3576114a2614631565b5b6020026020010151602001518c5f0151611cc3565b905080156114e657836114ca90614bf5565b9350866020015184106114e5576001955050505050506114fa565b5b50508060010190506113fc565b505f925050505b9392505050565b5f8060035f8773ffffffffffffffffffffffffffffffffffffffff1673ffffffffffffffffffffffffffffffffffffffff1681526020019081526020015f205490505f8103611553575f9150506116e2565b5f805f86868101906115659190614c3c565b925092509250611574836113ac565b61157d836113c0565b5f835167ffffffffffffffff81111561159957611598614436565b5b6040519080825280602002602001820160405280156115d257816020015b6115bf613c79565b8152602001906001900390816115b75790505b5090505f5b84518110156116a75760025f8683815181106115f6576115f5614631565b5b602002602001015181526020019081526020015f205f8c73ffffffffffffffffffffffffffffffffffffffff1673ffffffffffffffffffffffffffffffffffffffff1681526020019081526020015f206040518060600160405290815f820154815260200160018201548152602001600282015f9054906101000a900460ff16151515158152505082828151811061169157611690614631565b5b60200260200101819052508060010190506115d7565b505f604051806080016040528085151581526020018781526020018681526020018381525090506116d98a84836113d4565b96505050505050505b949350505050565b60605f6116f9845f01846120d2565b90506060819050809250505092915050565b5f61172182845f016120f190919063ffffffff16565b905092915050565b5f80846001015f8481526020019081526020015f205f8573ffffffffffffffffffffffffffffffffffffffff1673ffffffffffffffffffffffffffffffffffffffff1681526020019081526020015f205490505f81146118b8575f6001826117919190614cc4565b90505f60016117ab87895f016120f190919063ffffffff16565b6117b59190614cc4565b9050808214611846575f6117d687838a5f016121069092919063ffffffff16565b90506117f18784838b5f0161211d909392919063ffffffff16565b83886001015f8381526020019081526020015f205f8973ffffffffffffffffffffffffffffffffffffffff1673ffffffffffffffffffffffffffffffffffffffff1681526020019081526020015f2081905550505b61185b86885f0161213190919063ffffffff16565b866001015f8681526020019081526020015f205f8773ffffffffffffffffffffffffffffffffffffffff1673ffffffffffffffffffffffffffffffffffffffff1681526020019081526020015f205f9055600193505050506118bd565b5f9150505b9392505050565b5f6118d0848484611966565b61195b576118eb8383865f016121419092919063ffffffff16565b61190083855f016120f190919063ffffffff16565b846001015f8481526020019081526020015f205f8573ffffffffffffffffffffffffffffffffffffffff1673ffffffffffffffffffffffffffffffffffffffff1681526020019081526020015f20819055506001905061195f565b5f90505b9392505050565b5f80846001015f8481526020019081526020015f205f8573ffffffffffffffffffffffffffffffffffffffff1673ffffffffffffffffffffffffffffffffffffffff1681526020019081526020015f2054141590509392505050565b5f6119cd838361170b565b90505f600190505b818111611a15575f6119f3858584866119ee9190614cc4565b612153565b9050611a00858583611729565b50508080611a0d90614bf5565b9150506119d5565b50505050565b6060819050919050565b611bbf565b5f808290508391509250929050565b805182518252808352505050565b61018082840311611acc57602082018051835110611a6a57611a698382611a39565b5b5b600115611ac357602081019050838111611ac35780518282018051828111611a9557505050611abe565b5b600115611ab457806020830152848201915081519050828111611a96575b8260208301525050505b611a6b565b50505050611bbd565b81601f1683830160061c60051b0182518151808210611af457611aef8183611a2a565b915091505b8551808210611b2257611b078183611a2a565b91509150818310611b2157611b1c8284611a2a565b925092505b5b8087528184528286525050508051849150835b600115611b8a575b600115611b535780602001905080518211611b3d575b825b600115611b6a57808501905080518310611b55575b809350838210611b7a5750611b8a565b611b848483611a39565b50611b35565b5050836020820114611ba557611ba4846020830184611a47565b5b828114611bb857611bb7818484611a47565b5b505050505b565b805160028110611c6b57601f19602083018260051b8401805b80518185015111611bed578084019050611bd8565b828111611bfd5750505050611c6b565b8190505b80518185015110611c16578084019050611c01565b828111611c55575b600115611c4c578251825184528083528285019250602084019350828410611c465750611c4c565b50611c1e565b50505050611c6b565b5f8652611c63828486611a47565b848652505050505b5050565b6002815110611cc0576020810160408201600183510160051b83015b600115611cb4578151835114611ca657602083019250815183525b602082019150808203611c8b575b83830360051c84525050505b50565b5f60027fffffffff00000000ffffffffffffffffbce6faada7179e84f3b9cac2fc632551611cf19190614d24565b8560a001511115611d04575f90506120c8565b5f611d32866060015160158860600151611d1e9190614d54565b88602001516121749092919063ffffffff16565b90507fff1a2a9176d650e4a99dedb58f1793003935130579fe17b5a3f698ac5b00e634818051906020012014611d6b575f9150506120c8565b5f611d758961218a565b604051602001611d859190614e0d565b60405160208183030381529060405290505f611dc4886040015183518a60400151611db09190614d54565b8a602001516121749092919063ffffffff16565b90508180519060200120818051906020012014611de6575f93505050506120c8565b600160f81b7effffffffffffffffffffffffffffffffffffffffffffffffffffffffffffff1916600160f81b895f0151602081518110611e2957611e28614631565b5b602001015160f81c60f81b167effffffffffffffffffffffffffffffffffffffffffffffffffffffffffffff191614611e67575f93505050506120c8565b888015611ee35750600460f81b7effffffffffffffffffffffffffffffffffffffffffffffffffffffffffffff1916600460f81b895f0151602081518110611eb257611eb1614631565b5b602001015160f81c60f81b167effffffffffffffffffffffffffffffffffffffffffffffffffffffffffffff191614155b15611ef3575f93505050506120c8565b5f60028960200151604051611f089190614e85565b602060405180830381855afa158015611f23573d5f803e3d5ffd5b5050506040513d601f19601f82011682018060405250810190611f469190614eaf565b90505f60028a5f015183604051602001611f61929190614efa565b604051602081830303815290604052604051611f7d9190614e85565b602060405180830381855afa158015611f98573d5f803e3d5ffd5b5050506040513d601f19601f82011682018060405250810190611fbb9190614eaf565b90505f818b608001518c60a001518c8c604051602001611fdf959493929190614f21565b604051602081830303815290604052905087156120aa575f8061010073ffffffffffffffffffffffffffffffffffffffff168360405161201f9190614e85565b5f60405180830381855afa9150503d805f8114612057576040519150601f19603f3d011682016040523d82523d5f602084013e61205c565b606091505b509150915081801561206f57505f815114155b1561209a5760018180602001905181019061208a9190614f86565b14985050505050505050506120c8565b5f985050505050505050506120c8565b6120bf828c608001518d60a001518d8d6121b6565b96505050505050505b9695505050505050565b60606120e982845f0161233690919063ffffffff16565b905092915050565b5f6120fe835f018361234c565b905092915050565b5f612114845f018484612365565b90509392505050565b61212b845f01848484612382565b50505050565b61213d825f018261239c565b5050565b61214e835f0183836123e2565b505050565b5f61216b8383865f016121069092919063ffffffff16565b90509392505050565b6060612181848484612406565b90509392505050565b60606121af82604051806060016040528060408152602001614ff3604091395f612478565b9050919050565b5f808514806121e557507fffffffff00000000ffffffffffffffffbce6faada7179e84f3b9cac2fc6325518510155b806121ef57505f84145b8061221a57507fffffffff00000000ffffffffffffffffbce6faada7179e84f3b9cac2fc6325518410155b15612227575f905061232d565b6122318383612607565b61223d575f905061232d565b5f612247856127f8565b90505f7fffffffff00000000ffffffffffffffffbce6faada7179e84f3b9cac2fc6325518061227957612278614cf7565b5b82895f1c0990505f7fffffffff00000000ffffffffffffffffbce6faada7179e84f3b9cac2fc632551806122b0576122af614cf7565b5b83890990505f6122c28787858561287c565b90507fffffffff00000000ffffffffffffffffbce6faada7179e84f3b9cac2fc632551806122f3576122f2614cf7565b5b897fffffffff00000000ffffffffffffffffbce6faada7179e84f3b9cac2fc63255161231f9190614cc4565b820890505f81149450505050505b95945050505050565b6060612344835f01836133b5565b905092915050565b5f80612358848461345d565b9050805491505092915050565b5f612379612373858561345d565b83613471565b90509392505050565b61239661238f858561345d565b838361349d565b50505050565b5f6123a7838361345d565b90505f815490505f81036123bc5750506123de565b6123d5826001836123cd9190614cc4565b5f801b61349d565b60018103825550505b5050565b5f6123ed848461345d565b9050600181540182816020028301558082555050505050565b60608351828111612415578092505b838111612420578093505b82841015612470576040519150838303848601601f1980601f8401165b60011561245757808301518187015281810190508061243d575b508260208601015f815260208101604052838652505050505b509392505050565b60605f8451036124985760405180602001604052805f8152509050612600565b5f826124c95760036002865160046124b09190614fb1565b6124ba9190614d54565b6124c49190614d24565b6124f0565b6003600286516124d99190614d54565b6124e39190614d24565b60046124ef9190614fb1565b5b90505f8167ffffffffffffffff81111561250d5761250c614436565b5b6040519080825280601f01601f19166020018201604052801561253f5781602001600182028036833780820191505090505b509050600185016020820187885189016020810180515f82525b828410156125b4576003840193508351603f8160121c168701518653600186019550603f81600c1c168701518653600186019550603f8160061c168701518653600186019550603f8116870151865360018601955050612559565b80825289156125f45760038c5106600181146125d757600281146125ea576125f2565b603d6001870353603d60028703536125f2565b603d60018703535b505b50505050505080925050505b9392505050565b5f7fffffffff00000001000000000000000000000000ffffffffffffffffffffffff8310158061265757507fffffffff00000001000000000000000000000000ffffffffffffffffffffffff8210155b8061266c57505f8314801561266b57505f82145b5b15612679575f90506127f2565b5f7fffffffff00000001000000000000000000000000ffffffffffffffffffffffff806126a9576126a8614cf7565b5b83840990505f7fffffffff00000001000000000000000000000000ffffffffffffffffffffffff806126de576126dd614cf7565b5b7fffffffff00000001000000000000000000000000ffffffffffffffffffffffff8061270d5761270c614cf7565b5b7fffffffff00000001000000000000000000000000fffffffffffffffffffffffc87097fffffffff00000001000000000000000000000000ffffffffffffffffffffffff8061275f5761275e614cf7565b5b877fffffffff00000001000000000000000000000000ffffffffffffffffffffffff8061278f5761278e614cf7565b5b898a09090890507fffffffff00000001000000000000000000000000ffffffffffffffffffffffff806127c5576127c4614cf7565b5b7f5ac635d8aa3a93e7b3ebbd55769886bc651d06b0cc53b0f63bce3c3e27d2604b82089050808214925050505b92915050565b5f60405160208152602080820152602060408201528260608201527fffffffff00000000ffffffffffffffffbce6faada7179e84f3b9cac2fc63254f60808201527fffffffff00000000ffffffffffffffffbce6faada7179e84f3b9cac2fc63255160a082015260208160c08360055f19fa612872575f80fd5b8051915050919050565b5f805f805f60ff90505f805f8914801561289557505f88145b156128a8575f96505050505050506133ad565b6128f47f6b17d1f2e12c4247f8bce6e563a440f277037d812deb33a0f4a13945d898c2967f4fe342e2fe1a7f9b8ee7eb4a7c0f9e162bce33576b315ececbb6406837bf51f58d8d6134c6565b80925081935050505f8214801561290a57505f81145b1561298a577fffffffff00000000ffffffffffffffffbce6faada7179e84f3b9cac2fc6325518061293e5761293d614cf7565b5b887fffffffff00000000ffffffffffffffffbce6faada7179e84f3b9cac2fc632551038a0898505f97505f8914801561297657505f88145b15612989575f96505050505050506133ad565b5b600189841c16600189851c1660011b015b5f81036129bf5760018403935060018a851c1660018a861c1660011b01905061299b565b50600189841c16600189851c1660011b01955060018603612a21577f6b17d1f2e12c4247f8bce6e563a440f277037d812deb33a0f4a13945d898c29696507f4fe342e2fe1a7f9b8ee7eb4a7c0f9e162bce33576b315ececbb6406837bf51f593505b60028603612a30578a96508993505b60038603612a3f578196508093505b60018303925060019550600194505b827fffffffffffffffffffffffffffffffffffffffffffffffffffffffffffffffff1115613305577fffffffff00000001000000000000000000000000ffffffffffffffffffffffff846002097fffffffff00000001000000000000000000000000ffffffffffffffffffffffff8182097fffffffff00000001000000000000000000000000ffffffffffffffffffffffff818a097fffffffff00000001000000000000000000000000ffffffffffffffffffffffff82840992507fffffffff00000001000000000000000000000000ffffffffffffffffffffffff807fffffffff00000001000000000000000000000000ffffffffffffffffffffffff8b8d087fffffffff00000001000000000000000000000000ffffffffffffffffffffffff8c7fffffffff00000001000000000000000000000000ffffffffffffffffffffffff038e08096003097fffffffff00000001000000000000000000000000ffffffffffffffffffffffff89850998507fffffffff00000001000000000000000000000000ffffffffffffffffffffffff8a840999507fffffffff00000001000000000000000000000000ffffffffffffffffffffffff80837fffffffff00000001000000000000000000000000fffffffffffffffffffffffd097fffffffff00000001000000000000000000000000ffffffffffffffffffffffff838409089a507fffffffff00000001000000000000000000000000ffffffffffffffffffffffff80837fffffffff00000001000000000000000000000000ffffffffffffffffffffffff038d08820992507fffffffff00000001000000000000000000000000ffffffffffffffffffffffff837fffffffff00000001000000000000000000000000ffffffffffffffffffffffff8a870908975060018d881c1660018d891c1660011b01905080612d2a57877fffffffff00000001000000000000000000000000ffffffffffffffffffffffff039750505050506132fa565b60018103612d79577f6b17d1f2e12c4247f8bce6e563a440f277037d812deb33a0f4a13945d898c29693507f4fe342e2fe1a7f9b8ee7eb4a7c0f9e162bce33576b315ececbb6406837bf51f592505b60028103612d88578e93508d92505b60038103612d97578593508492505b89612db357839a508297506001995060019850505050506132fa565b7fffffffff00000001000000000000000000000000ffffffffffffffffffffffff887fffffffff00000001000000000000000000000000ffffffffffffffffffffffff8b8609087fffffffff00000001000000000000000000000000ffffffffffffffffffffffff8c7fffffffff00000001000000000000000000000000ffffffffffffffffffffffff037fffffffff00000001000000000000000000000000ffffffffffffffffffffffff8d8809089350806130f357836130f2577fffffffff00000001000000000000000000000000ffffffffffffffffffffffff897fffffffff00000001000000000000000000000000fffffffffffffffffffffffd0994507fffffffff00000001000000000000000000000000ffffffffffffffffffffffff85860993507fffffffff00000001000000000000000000000000ffffffffffffffffffffffff848d0992507fffffffff00000001000000000000000000000000ffffffffffffffffffffffff84860994507fffffffff00000001000000000000000000000000ffffffffffffffffffffffff808c7fffffffff00000001000000000000000000000000ffffffffffffffffffffffff038e087fffffffff00000001000000000000000000000000ffffffffffffffffffffffff8d8f080990507fffffffff00000001000000000000000000000000ffffffffffffffffffffffff8160030991507fffffffff00000001000000000000000000000000ffffffffffffffffffffffff8a860999507fffffffff00000001000000000000000000000000ffffffffffffffffffffffff8b85099a507fffffffff00000001000000000000000000000000ffffffffffffffffffffffff80847fffffffff00000001000000000000000000000000fffffffffffffffffffffffd097fffffffff00000001000000000000000000000000ffffffffffffffffffffffff848509089b507fffffffff00000001000000000000000000000000ffffffffffffffffffffffff808d7fffffffff00000001000000000000000000000000ffffffffffffffffffffffff038508830993507fffffffff00000001000000000000000000000000ffffffffffffffffffffffff808a87098508985050505050506132fa565b5b7fffffffff00000001000000000000000000000000ffffffffffffffffffffffff84850991507fffffffff00000001000000000000000000000000ffffffffffffffffffffffff8483097fffffffff00000001000000000000000000000000ffffffffffffffffffffffff838d099b507fffffffff00000001000000000000000000000000ffffffffffffffffffffffff818c099a507fffffffff00000001000000000000000000000000ffffffffffffffffffffffff838e097fffffffff00000001000000000000000000000000ffffffffffffffffffffffff80827fffffffff00000001000000000000000000000000fffffffffffffffffffffffd097fffffffff00000001000000000000000000000000ffffffffffffffffffffffff847fffffffff00000001000000000000000000000000ffffffffffffffffffffffff037fffffffff00000001000000000000000000000000ffffffffffffffffffffffff878809080893507fffffffff00000001000000000000000000000000ffffffffffffffffffffffff80838d097fffffffff00000001000000000000000000000000ffffffffffffffffffffffff857fffffffff00000001000000000000000000000000ffffffffffffffffffffffff887fffffffff00000001000000000000000000000000ffffffffffffffffffffffff03860809089a50839d50505050505050505b600183039250612a4e565b60405186606082015260208152602080820152602060408201527fffffffff00000001000000000000000000000000fffffffffffffffffffffffd60808201527fffffffff00000001000000000000000000000000ffffffffffffffffffffffff60a082015260208160c08360055f19fa61337e575f80fd5b7fffffffff00000001000000000000000000000000ffffffffffffffffffffffff815189099750505050505050505b949350505050565b60605f6133c2848461345d565b90505f815490508067ffffffffffffffff8111156133e3576133e2614436565b5b6040519080825280602002602001820160405280156134115781602001602082028036833780820191505090505b5092505f5b81811015613454576134288382613471565b84828151811061343b5761343a614631565b5b6020026020010181815250508080600101915050613416565b50505092915050565b5f815f528260205260405f20905092915050565b5f8254821061348b57638277484f5f52816020526024601cfd5b60018201602002830154905092915050565b825482106134b657638277484f5f52816020526024601cfd5b8060018301602002840155505050565b5f805f806134d48888613573565b156134e657858593509350505061356a565b6134f08686613573565b1561350257878793509350505061356a565b858814801561351057508487145b1561353757613522888860018061357f565b809450819550829a50839b5050505050613557565b61354688886001808a8a613807565b809450819550829a50839b50505050505b61356388888484613b0b565b9350935050505b94509492505050565b5f808214905092915050565b5f805f807fffffffff00000001000000000000000000000000ffffffffffffffffffffffff8760020993507fffffffff00000001000000000000000000000000ffffffffffffffffffffffff84850991507fffffffff00000001000000000000000000000000ffffffffffffffffffffffff82890990507fffffffff00000001000000000000000000000000ffffffffffffffffffffffff82850992507fffffffff00000001000000000000000000000000ffffffffffffffffffffffff86830991507fffffffff00000001000000000000000000000000ffffffffffffffffffffffff807fffffffff00000001000000000000000000000000ffffffffffffffffffffffff888b087fffffffff00000001000000000000000000000000ffffffffffffffffffffffff897fffffffff00000001000000000000000000000000ffffffffffffffffffffffff038c080960030995507fffffffff00000001000000000000000000000000ffffffffffffffffffffffff80827fffffffff00000001000000000000000000000000fffffffffffffffffffffffd097fffffffff00000001000000000000000000000000ffffffffffffffffffffffff8889090893507fffffffff00000001000000000000000000000000ffffffffffffffffffffffff80857fffffffff00000001000000000000000000000000ffffffffffffffffffffffff038308870997507fffffffff00000001000000000000000000000000ffffffffffffffffffffffff85840990507fffffffff00000001000000000000000000000000ffffffffffffffffffffffff808885097fffffffff00000001000000000000000000000000ffffffffffffffffffffffff0389089250945094509450949050565b5f805f805f89036138245785856001809350935093509350613afe565b887fffffffff00000001000000000000000000000000ffffffffffffffffffffffff0398507fffffffff00000001000000000000000000000000ffffffffffffffffffffffff897fffffffff00000001000000000000000000000000ffffffffffffffffffffffff8988090894507fffffffff00000001000000000000000000000000ffffffffffffffffffffffff8a7fffffffff00000001000000000000000000000000ffffffffffffffffffffffff037fffffffff00000001000000000000000000000000ffffffffffffffffffffffff8a89090895507fffffffff00000001000000000000000000000000ffffffffffffffffffffffff86870993507fffffffff00000001000000000000000000000000ffffffffffffffffffffffff86850992507fffffffff00000001000000000000000000000000ffffffffffffffffffffffff84890991507fffffffff00000001000000000000000000000000ffffffffffffffffffffffff83880990507fffffffff00000001000000000000000000000000ffffffffffffffffffffffff848b0997507fffffffff00000001000000000000000000000000ffffffffffffffffffffffff80897fffffffff00000001000000000000000000000000fffffffffffffffffffffffd097fffffffff00000001000000000000000000000000ffffffffffffffffffffffff857fffffffff00000001000000000000000000000000ffffffffffffffffffffffff037fffffffff00000001000000000000000000000000ffffffffffffffffffffffff898a09080893507fffffffff00000001000000000000000000000000ffffffffffffffffffffffff80848b097fffffffff00000001000000000000000000000000ffffffffffffffffffffffff877fffffffff00000001000000000000000000000000ffffffffffffffffffffffff887fffffffff00000001000000000000000000000000ffffffffffffffffffffffff038d08090892505b9650965096509692505050565b5f805f613b1784613bf5565b90507fffffffff00000001000000000000000000000000ffffffffffffffffffffffff80613b4857613b47614cf7565b5b81870991505f7fffffffff00000001000000000000000000000000ffffffffffffffffffffffff80613b7d57613b7c614cf7565b5b82870990507fffffffff00000001000000000000000000000000ffffffffffffffffffffffff80613bb157613bb0614cf7565b5b81820991507fffffffff00000001000000000000000000000000ffffffffffffffffffffffff80613be557613be4614cf7565b5b8289099350505094509492505050565b5f60405160208152602080820152602060408201528260608201527fffffffff00000001000000000000000000000000fffffffffffffffffffffffd60808201527fffffffff00000001000000000000000000000000ffffffffffffffffffffffff60a082015260208160c08360055f19fa613c6f575f80fd5b8051915050919050565b60405180606001604052805f81526020015f81526020015f151581525090565b5f81519050919050565b5f82825260208201905092915050565b8281835e5f83830152505050565b5f601f19601f8301169050919050565b5f613cdb82613c99565b613ce58185613ca3565b9350613cf5818560208601613cb3565b613cfe81613cc1565b840191505092915050565b5f6020820190508181035f830152613d218184613cd1565b905092915050565b5f604051905090565b5f80fd5b5f80fd5b5f73ffffffffffffffffffffffffffffffffffffffff82169050919050565b5f613d6382613d3a565b9050919050565b613d7381613d59565b8114613d7d575f80fd5b50565b5f81359050613d8e81613d6a565b92915050565b5f60208284031215613da957613da8613d32565b5b5f613db684828501613d80565b91505092915050565b5f819050919050565b613dd181613dbf565b82525050565b5f602082019050613dea5f830184613dc8565b92915050565b613df981613dbf565b8114613e03575f80fd5b50565b5f81359050613e1481613df0565b92915050565b5f8115159050919050565b613e2e81613e1a565b8114613e38575f80fd5b50565b5f81359050613e4981613e25565b92915050565b5f805f8060808587031215613e6757613e66613d32565b5b5f613e7487828801613e06565b9450506020613e8587828801613e06565b9350506040613e9687828801613e3b565b9250506060613ea787828801613d80565b91505092959194509250565b5f819050919050565b613ec581613eb3565b82525050565b5f602082019050613ede5f830184613ebc565b92915050565b613eed81613eb3565b8114613ef7575f80fd5b50565b5f81359050613f0881613ee4565b92915050565b5f8060408385031215613f2457613f23613d32565b5b5f613f3185828601613efa565b9250506020613f4285828601613d80565b9150509250929050565b613f5581613e1a565b82525050565b5f606082019050613f6e5f830186613dc8565b613f7b6020830185613dc8565b613f886040830184613f4c565b949350505050565b5f805f60608486031215613fa757613fa6613d32565b5b5f613fb486828701613e06565b9350506020613fc586828701613e06565b9250506040613fd686828701613e3b565b9150509250925092565b5f80fd5b5f80fd5b5f80fd5b5f8083601f84011261400157614000613fe0565b5b8235905067ffffffffffffffff81111561401e5761401d613fe4565b5b60208301915083600182028301111561403a57614039613fe8565b5b9250929050565b5f806020838503121561405757614056613d32565b5b5f83013567ffffffffffffffff81111561407457614073613d36565b5b61408085828601613fec565b92509250509250929050565b5f60208201905061409f5f830184613f4c565b92915050565b5f805f805f606086880312156140be576140bd613d32565b5b5f6140cb88828901613efa565b955050602086013567ffffffffffffffff8111156140ec576140eb613d36565b5b6140f888828901613fec565b9450945050604086013567ffffffffffffffff81111561411b5761411a613d36565b5b61412788828901613fec565b92509250509295509295909350565b5f6020828403121561414b5761414a613d32565b5b5f61415884828501613e06565b91505092915050565b5f80fd5b5f610120828403121561417b5761417a614161565b5b81905092915050565b5f806040838503121561419a57614199613d32565b5b5f83013567ffffffffffffffff8111156141b7576141b6613d36565b5b6141c385828601614165565b92505060206141d485828601613efa565b9150509250929050565b5f819050919050565b5f6142016141fc6141f784613dbf565b6141de565b613dbf565b9050919050565b614211816141e7565b82525050565b5f60208201905061422a5f830184614208565b92915050565b5f81519050919050565b5f82825260208201905092915050565b5f819050602082019050919050565b61426281613eb3565b82525050565b5f6142738383614259565b60208301905092915050565b5f602082019050919050565b5f61429582614230565b61429f818561423a565b93506142aa8361424a565b805f5b838110156142da5781516142c18882614268565b97506142cc8361427f565b9250506001810190506142ad565b5085935050505092915050565b5f6020820190508181035f8301526142ff818461428b565b905092915050565b5f805f806060858703121561431f5761431e613d32565b5b5f61432c87828801613d80565b945050602061433d87828801613efa565b935050604085013567ffffffffffffffff81111561435e5761435d613d36565b5b61436a87828801613fec565b925092505092959194509250565b5f7fffffffff0000000000000000000000000000000000000000000000000000000082169050919050565b6143ac81614378565b82525050565b5f6020820190506143c55f8301846143a3565b92915050565b6143d481613d59565b82525050565b5f6080820190506143ed5f830187613dc8565b6143fa6020830186613dc8565b6144076040830185613f4c565b61441460608301846143cb565b95945050505050565b5f6020820190506144305f8301846143cb565b92915050565b7f4e487b71000000000000000000000000000000000000000000000000000000005f52604160045260245ffd5b61446c82613cc1565b810181811067ffffffffffffffff8211171561448b5761448a614436565b5b80604052505050565b5f61449d613d29565b90506144a98282614463565b919050565b5f67ffffffffffffffff8211156144c8576144c7614436565b5b602082029050602081019050919050565b5f80fd5b5f80fd5b5f606082840312156144f6576144f56144d9565b5b6145006060614494565b90505f61450f84828501613e06565b5f83015250602061452284828501613e06565b602083015250604061453684828501613e3b565b60408301525092915050565b5f61455461454f846144ae565b614494565b9050808382526020820190506060840283018581111561457757614576613fe8565b5b835b818110156145a0578061458c88826144e1565b845260208401935050606081019050614579565b5050509392505050565b5f82601f8301126145be576145bd613fe0565b5b81356145ce848260208601614542565b91505092915050565b5f80604083850312156145ed576145ec613d32565b5b5f6145fa85828601613e06565b925050602083013567ffffffffffffffff81111561461b5761461a613d36565b5b614627858286016145aa565b9150509250929050565b7f4e487b71000000000000000000000000000000000000000000000000000000005f52603260045260245ffd5b5f67ffffffffffffffff82111561467857614677614436565b5b602082029050602081019050919050565b5f61469b6146968461465e565b614494565b905080838252602082019050602084028301858111156146be576146bd613fe8565b5b835b818110156146e757806146d38882613efa565b8452602084019350506020810190506146c0565b5050509392505050565b5f82601f83011261470557614704613fe0565b5b8135614715848260208601614689565b91505092915050565b5f60808284031215614733576147326144d9565b5b61473d6080614494565b90505f61474c84828501613e3b565b5f83015250602061475f84828501613e06565b602083015250604082013567ffffffffffffffff811115614783576147826144dd565b5b61478f848285016146f1565b604083015250606082013567ffffffffffffffff8111156147b3576147b26144dd565b5b6147bf848285016145aa565b60608301525092915050565b5f602082840312156147e0576147df613d32565b5b5f82013567ffffffffffffffff8111156147fd576147fc613d36565b5b6148098482850161471e565b91505092915050565b5f67ffffffffffffffff82111561482c5761482b614436565b5b602082029050602081019050919050565b5f80fd5b5f67ffffffffffffffff82111561485b5761485a614436565b5b61486482613cc1565b9050602081019050919050565b828183375f83830152505050565b5f61489161488c84614841565b614494565b9050828152602081018484840111156148ad576148ac61483d565b5b6148b8848285614871565b509392505050565b5f82601f8301126148d4576148d3613fe0565b5b81356148e484826020860161487f565b91505092915050565b5f67ffffffffffffffff82111561490757614906614436565b5b61491082613cc1565b9050602081019050919050565b5f61492f61492a846148ed565b614494565b90508281526020810184848401111561494b5761494a61483d565b5b614956848285614871565b509392505050565b5f82601f83011261497257614971613fe0565b5b813561498284826020860161491d565b91505092915050565b5f60c082840312156149a05761499f6144d9565b5b6149aa60c0614494565b90505f82013567ffffffffffffffff8111156149c9576149c86144dd565b5b6149d5848285016148c0565b5f83015250602082013567ffffffffffffffff8111156149f8576149f76144dd565b5b614a048482850161495e565b6020830152506040614a1884828501613e06565b6040830152506060614a2c84828501613e06565b6060830152506080614a4084828501613e06565b60808301525060a0614a5484828501613e06565b60a08301525092915050565b5f614a72614a6d84614812565b614494565b90508083825260208201905060208402830185811115614a9557614a94613fe8565b5b835b81811015614adc57803567ffffffffffffffff811115614aba57614ab9613fe0565b5b808601614ac7898261498b565b85526020850194505050602081019050614a97565b5050509392505050565b5f82601f830112614afa57614af9613fe0565b5b8135614b0a848260208601614a60565b91505092915050565b5f60208284031215614b2857614b27613d32565b5b5f82013567ffffffffffffffff811115614b4557614b44613d36565b5b614b5184828501614ae6565b91505092915050565b5f80fd5b5f80fd5b5f80fd5b5f8083356001602003843603038112614b8257614b81614b5a565b5b80840192508235915067ffffffffffffffff821115614ba457614ba3614b5e565b5b602083019250600182023603831315614bc057614bbf614b62565b5b509250929050565b7f4e487b71000000000000000000000000000000000000000000000000000000005f52601160045260245ffd5b5f614bff82613dbf565b91507fffffffffffffffffffffffffffffffffffffffffffffffffffffffffffffffff8203614c3157614c30614bc8565b5b600182019050919050565b5f805f60608486031215614c5357614c52613d32565b5b5f84013567ffffffffffffffff811115614c7057614c6f613d36565b5b614c7c868287016146f1565b9350506020614c8d86828701613e3b565b925050604084013567ffffffffffffffff811115614cae57614cad613d36565b5b614cba86828701614ae6565b9150509250925092565b5f614cce82613dbf565b9150614cd983613dbf565b9250828203905081811115614cf157614cf0614bc8565b5b92915050565b7f4e487b71000000000000000000000000000000000000000000000000000000005f52601260045260245ffd5b5f614d2e82613dbf565b9150614d3983613dbf565b925082614d4957614d48614cf7565b5b828204905092915050565b5f614d5e82613dbf565b9150614d6983613dbf565b9250828201905080821115614d8157614d80614bc8565b5b92915050565b7f226368616c6c656e6765223a2200000000000000000000000000000000000000815250565b5f81905092915050565b5f614dc182613c99565b614dcb8185614dad565b9350614ddb818560208601613cb3565b80840191505092915050565b7f2200000000000000000000000000000000000000000000000000000000000000815250565b5f614e1782614d87565b600d82019150614e278284614db7565b9150614e3282614de7565b60018201915081905092915050565b5f81519050919050565b5f81905092915050565b5f614e5f82614e41565b614e698185614e4b565b9350614e79818560208601613cb3565b80840191505092915050565b5f614e908284614e55565b915081905092915050565b5f81519050614ea981613ee4565b92915050565b5f60208284031215614ec457614ec3613d32565b5b5f614ed184828501614e9b565b91505092915050565b5f819050919050565b614ef4614eef82613eb3565b614eda565b82525050565b5f614f058285614e55565b9150614f118284614ee3565b6020820191508190509392505050565b5f60a082019050614f345f830188613ebc565b614f416020830187613dc8565b614f4e6040830186613dc8565b614f5b6060830185613dc8565b614f686080830184613dc8565b9695505050505050565b5f81519050614f8081613df0565b92915050565b5f60208284031215614f9b57614f9a613d32565b5b5f614fa884828501614f72565b91505092915050565b5f614fbb82613dbf565b9150614fc683613dbf565b9250828202614fd481613dbf565b91508282048414831517614feb57614fea614bc8565b5b509291505056fe4142434445464748494a4b4c4d4e4f505152535455565758595a6162636465666768696a6b6c6d6e6f707172737475767778797a303132333435363738392d5fa2646970667358221220f88e7ed5929e45ea0370365e86322f986b71da7a00e139b95b5d5117feaf3c5c64736f6c63430008190033","linkReferences":{}},"methodIdentifiers":{"addCredential(uint256,uint256,bool)":"7a63a1fd","credentialDetails(bytes32,address)":"40ecfa83","generateCredentialId(uint256,uint256,bool,address)":"3bf586b4","getCredentialCount(address)":"2d405995","getCredentialIds(address)":"f0ccd0d3","getCredentialInfo(bytes32,address)":"6a839d7d","hasCredential(uint256,uint256,bool,address)":"c9fd9c9b","hasCredentialById(bytes32,address)":"7ef693bf","isInitialized(address)":"d60b347f","isModuleType(uint256)":"ecd05961","isValidSignatureWithSender(address,bytes32,bytes)":"f551e2ee","name()":"06fdde03","onInstall(bytes)":"6d61fe70","onUninstall(bytes)":"8a91b0e3","removeCredential(uint256,uint256,bool)":"48533fde","setThreshold(uint256)":"960bfe04","threshold(address)":"c86ec2bf","validateSignatureWithData(bytes32,bytes,bytes)":"940d3840","validateUserOp((address,uint256,bytes,bytes,bytes32,uint256,bytes32,bytes,bytes),bytes32)":"97003203","version()":"54fd4d50"},"id":59}