{"abi":[{"type":"function","name":"addCredential","inputs":[{"name":"pubKeyX","type":"uint256","internalType":"uint256"},{"name":"pubKeyY","type":"uint256","internalType":"uint256"},{"name":"requireUV","type":"bool","internalType":"bool"}],"outputs":[],"stateMutability":"nonpayable"},{"type":"function","name":"credentialDetails","inputs":[{"name":"credentialId","type":"bytes32","internalType":"bytes32"},{"name":"account","type":"address","internalType":"address"}],"outputs":[{"name":"pubKeyX","type":"uint256","internalType":"uint256"},{"name":"pubKeyY","type":"uint256","internalType":"uint256"},{"name":"requireUV","type":"bool","internalType":"bool"}],"stateMutability":"view"},{"type":"function","name":"generateCredentialId","inputs":[{"name":"pubKeyX","type":"uint256","internalType":"uint256"},{"name":"pubKeyY","type":"uint256","internalType":"uint256"},{"name":"account","type":"address","internalType":"address"}],"outputs":[{"name":"","type":"bytes32","internalType":"bytes32"}],"stateMutability":"pure"},{"type":"function","name":"getCredentialCount","inputs":[{"name":"account","type":"address","internalType":"address"}],"outputs":[{"name":"count","type":"uint256","internalType":"uint256"}],"stateMutability":"view"},{"type":"function","name":"getCredentialIds","inputs":[{"name":"account","type":"address","internalType":"address"}],"outputs":[{"name":"credentialsIds","type":"bytes32[]","internalType":"bytes32[]"}],"stateMutability":"view"},{"type":"function","name":"getCredentialInfo","inputs":[{"name":"credentialId","type":"bytes32","internalType":"bytes32"},{"name":"account","type":"address","internalType":"address"}],"outputs":[{"name":"pubKeyX","type":"uint256","internalType":"uint256"},{"name":"pubKeyY","type":"uint256","internalType":"uint256"},{"name":"requireUV","type":"bool","internalType":"bool"}],"stateMutability":"view"},{"type":"function","name":"hasCredential","inputs":[{"name":"pubKeyX","type":"uint256","internalType":"uint256"},{"name":"pubKeyY","type":"uint256","internalType":"uint256"},{"name":"account","type":"address","internalType":"address"}],"outputs":[{"name":"exists","type":"bool","internalType":"bool"}],"stateMutability":"view"},{"type":"function","name":"hasCredentialById","inputs":[{"name":"credentialId","type":"bytes32","internalType":"bytes32"},{"name":"account","type":"address","internalType":"address"}],"outputs":[{"name":"exists","type":"bool","internalType":"bool"}],"stateMutability":"view"},{"type":"function","name":"isInitialized","inputs":[{"name":"smartAccount","type":"address","internalType":"address"}],"outputs":[{"name":"","type":"bool","internalType":"bool"}],"stateMutability":"view"},{"type":"function","name":"isModuleType","inputs":[{"name":"typeID","type":"uint256","internalType":"uint256"}],"outputs":[{"name":"","type":"bool","internalType":"bool"}],"stateMutability":"pure"},{"type":"function","name":"isValidSignatureWithSender","inputs":[{"name":"","type":"address","internalType":"address"},{"name":"hash","type":"bytes32","internalType":"bytes32"},{"name":"data","type":"bytes","internalType":"bytes"}],"outputs":[{"name":"","type":"bytes4","internalType":"bytes4"}],"stateMutability":"view"},{"type":"function","name":"name","inputs":[],"outputs":[{"name":"","type":"string","internalType":"string"}],"stateMutability":"pure"},{"type":"function","name":"onInstall","inputs":[{"name":"data","type":"bytes","internalType":"bytes"}],"outputs":[],"stateMutability":"nonpayable"},{"type":"function","name":"onUninstall","inputs":[{"name":"","type":"bytes","internalType":"bytes"}],"outputs":[],"stateMutability":"nonpayable"},{"type":"function","name":"removeCredential","inputs":[{"name":"pubKeyX","type":"uint256","internalType":"uint256"},{"name":"pubKeyY","type":"uint256","internalType":"uint256"}],"outputs":[],"stateMutability":"nonpayable"},{"type":"function","name":"setThreshold","inputs":[{"name":"_threshold","type":"uint256","internalType":"uint256"}],"outputs":[],"stateMutability":"nonpayable"},{"type":"function","name":"threshold","inputs":[{"name":"account","type":"address","internalType":"address"}],"outputs":[{"name":"threshold","type":"uint256","internalType":"uint256"}],"stateMutability":"view"},{"type":"function","name":"validateSignatureWithData","inputs":[{"name":"hash","type":"bytes32","internalType":"bytes32"},{"name":"signature","type":"bytes","internalType":"bytes"},{"name":"data","type":"bytes","internalType":"bytes"}],"outputs":[{"name":"","type":"bool","internalType":"bool"}],"stateMutability":"view"},{"type":"function","name":"validateUserOp","inputs":[{"name":"userOp","type":"tuple","internalType":"struct PackedUserOperation","components":[{"name":"sender","type":"address","internalType":"address"},{"name":"nonce","type":"uint256","internalType":"uint256"},{"name":"initCode","type":"bytes","internalType":"bytes"},{"name":"callData","type":"bytes","internalType":"bytes"},{"name":"accountGasLimits","type":"bytes32","internalType":"bytes32"},{"name":"preVerificationGas","type":"uint256","internalType":"uint256"},{"name":"gasFees","type":"bytes32","internalType":"bytes32"},{"name":"paymasterAndData","type":"bytes","internalType":"bytes"},{"name":"signature","type":"bytes","internalType":"bytes"}]},{"name":"userOpHash","type":"bytes32","internalType":"bytes32"}],"outputs":[{"name":"","type":"uint256","internalType":"ERC7579ValidatorBase.ValidationData"}],"stateMutability":"view"},{"type":"function","name":"version","inputs":[],"outputs":[{"name":"","type":"string","internalType":"string"}],"stateMutability":"pure"},{"type":"event","name":"CredentialAdded","inputs":[{"name":"account","type":"address","indexed":true,"internalType":"address"},{"name":"credentialId","type":"bytes32","indexed":true,"internalType":"bytes32"}],"anonymous":false},{"type":"event","name":"CredentialRemoved","inputs":[{"name":"account","type":"address","indexed":true,"internalType":"address"},{"name":"credentialId","type":"bytes32","indexed":true,"internalType":"bytes32"}],"anonymous":false},{"type":"event","name":"ModuleInitialized","inputs":[{"name":"account","type":"address","indexed":true,"internalType":"address"}],"anonymous":false},{"type":"event","name":"ModuleUninitialized","inputs":[{"name":"account","type":"address","indexed":true,"internalType":"address"}],"anonymous":false},{"type":"event","name":"ThresholdSet","inputs":[{"name":"account","type":"address","indexed":true,"internalType":"address"},{"name":"threshold","type":"uint256","indexed":false,"internalType":"uint256"}],"anonymous":false},{"type":"error","name":"CannotRemoveCredential","inputs":[]},{"type":"error","name":"CredentialAlreadyExists","inputs":[]},{"type":"error","name":"InvalidCredential","inputs":[{"name":"credentialId","type":"bytes32","internalType":"bytes32"}]},{"type":"error","name":"InvalidPublicKey","inputs":[]},{"type":"error","name":"InvalidThreshold","inputs":[]},{"type":"error","name":"MaxCredentialsReached","inputs":[]},{"type":"error","name":"ModuleAlreadyInitialized","inputs":[{"name":"smartAccount","type":"address","internalType":"address"}]},{"type":"error","name":"NotInitialized","inputs":[{"name":"smartAccount","type":"address","internalType":"address"}]},{"type":"error","name":"NotSorted","inputs":[]},{"type":"error","name":"NotUnique","inputs":[]},{"type":"error","name":"ThresholdNotSet","inputs":[]}],"bytecode":{"object":"0x6080604052348015600e575f5ffd5b50614f1c8061001c5f395ff3fe608060405234801561000f575f5ffd5b506004361061012a575f3560e01c80638a91b0e3116100ab578063cc5f1aea1161006f578063cc5f1aea1461038e578063d60b347f146103aa578063ecd05961146103da578063f0ccd0d31461040a578063f551e2ee1461043a5761012a565b80638a91b0e3146102c6578063940d3840146102e2578063960bfe0414610312578063970032031461032e578063c86ec2bf1461035e5761012a565b806354fd4d50116100f257806354fd4d501461020e5780636a839d7d1461022c5780636d61fe701461025e5780637a63a1fd1461027a5780637ef693bf146102965761012a565b806306fdde031461012e5780632d4059951461014c57806331b5b6f31461017c57806340ecfa83146101ac5780634ad81f42146101de575b5f5ffd5b61013661046a565b6040516101439190613b53565b60405180910390f35b61016660048036038101906101619190613bde565b6104a7565b6040516101739190613c21565b60405180910390f35b61019660048036038101906101919190613c64565b6104c2565b6040516101a39190613ccc565b60405180910390f35b6101c660048036038101906101c19190613d0f565b6104f7565b6040516101d593929190613d67565b60405180910390f35b6101f860048036038101906101f39190613c64565b610534565b6040516102059190613d9c565b60405180910390f35b610216610562565b6040516102239190613b53565b60405180910390f35b61024660048036038101906102419190613d0f565b61059f565b60405161025593929190613d67565b60405180910390f35b61027860048036038101906102739190613e16565b610645565b005b610294600480360381019061028f9190613e8b565b610a4a565b005b6102b060048036038101906102ab9190613d0f565b610c6e565b6040516102bd9190613d9c565b60405180910390f35b6102e060048036038101906102db9190613e16565b610c8c565b005b6102fc60048036038101906102f79190613edb565b610ddf565b6040516103099190613d9c565b60405180910390f35b61032c60048036038101906103279190613f6c565b610f4a565b005b61034860048036038101906103439190613fba565b6110b1565b604051610355919061404d565b60405180910390f35b61037860048036038101906103739190613bde565b6110fc565b6040516103859190613c21565b60405180910390f35b6103a860048036038101906103a39190614066565b611111565b005b6103c460048036038101906103bf9190613bde565b611309565b6040516103d19190613d9c565b60405180910390f35b6103f460048036038101906103ef9190613f6c565b611352565b6040516104019190613d9c565b60405180910390f35b610424600480360381019061041f9190613bde565b611369565b604051610431919061415b565b60405180910390f35b610454600480360381019061044f919061417b565b611385565b6040516104619190614226565b60405180910390f35b60606040518060400160405280601181526020017f576562417574686e56616c696461746f72000000000000000000000000000000815250905090565b5f6104bb825f6113bf90919063ffffffff16565b9050919050565b5f8383836040516020016104d89392919061424e565b6040516020818303038152906040528051906020012090509392505050565b6002602052815f5260405f20602052805f5260405f205f9150915050805f015490806001015490806002015f9054906101000a900460ff16905083565b5f5f6105418585856104c2565b905061055883825f6113d49092919063ffffffff16565b9150509392505050565b60606040518060400160405280600581526020017f312e302e30000000000000000000000000000000000000000000000000000000815250905090565b5f5f5f5f60025f8781526020019081526020015f205f8673ffffffffffffffffffffffffffffffffffffffff1673ffffffffffffffffffffffffffffffffffffffff1681526020019081526020015f206040518060600160405290815f820154815260200160018201548152602001600282015f9054906101000a900460ff1615151515815250509050805f015181602001518260400151935093509350509250925092565b5f5f83838101906106569190614424565b915091505f815190505f8303610698576040517f34b46f4800000000000000000000000000000000000000000000000000000000815260040160405180910390fd5b828110156106d2576040517faabd5a0900000000000000000000000000000000000000000000000000000000815260040160405180910390fd5b602081111561070d576040517f4028a50d00000000000000000000000000000000000000000000000000000000815260040160405180910390fd5b5f3390508360035f8373ffffffffffffffffffffffffffffffffffffffff1673ffffffffffffffffffffffffffffffffffffffff1681526020019081526020015f20819055505f5f5f90505b838110156109fd575f8582815181106107755761077461447e565b5b60200260200101515f015114806107a957505f85828151811061079b5761079a61447e565b5b602002602001015160200151145b156107e0576040517fa2d0fee800000000000000000000000000000000000000000000000000000000815260040160405180910390fd5b5f6108278683815181106107f7576107f661447e565b5b60200260200101515f01518784815181106108155761081461447e565b5b602002602001015160200151866104c2565b905060405180606001604052808784815181106108475761084661447e565b5b60200260200101515f0151815260200187848151811061086a5761086961447e565b5b602002602001015160200151815260200187848151811061088e5761088d61447e565b5b602002602001015160400151151581525060025f8381526020019081526020015f205f8673ffffffffffffffffffffffffffffffffffffffff1673ffffffffffffffffffffffffffffffffffffffff1681526020019081526020015f205f820151815f0155602082015181600101556040820151816002015f6101000a81548160ff0219169083151502179055509050505f61093585835f6113eb9092919063ffffffff16565b90508061096e576040517f8c9946f900000000000000000000000000000000000000000000000000000000815260040160405180910390fd5b818573ffffffffffffffffffffffffffffffffffffffff167fc72f5aabeb29ac80439775ff547ad1442c87fd0dbb35cfaff04dbd2bc7764b2860405160405180910390a38184106109eb576040517fba50f91100000000000000000000000000000000000000000000000000000000815260040160405180910390fd5b81935050508080600101915050610759565b508173ffffffffffffffffffffffffffffffffffffffff167f27b541a16df0902e262f34789782092ab25125513b8ed73608e802951771b92860405160405180910390a250505050505050565b5f339050610a5781611309565b610a9857806040517ff91bd6f1000000000000000000000000000000000000000000000000000000008152600401610a8f91906144ab565b60405180910390fd5b5f841480610aa557505f83145b15610adc576040517fa2d0fee800000000000000000000000000000000000000000000000000000000815260040160405180910390fd5b5f610ae88585846104c2565b90506020610aff835f6113bf90919063ffffffff16565b10610b36576040517f4028a50d00000000000000000000000000000000000000000000000000000000815260040160405180910390fd5b604051806060016040528086815260200185815260200184151581525060025f8381526020019081526020015f205f8473ffffffffffffffffffffffffffffffffffffffff1673ffffffffffffffffffffffffffffffffffffffff1681526020019081526020015f205f820151815f0155602082015181600101556040820151816002015f6101000a81548160ff0219169083151502179055509050505f610be983835f6113eb9092919063ffffffff16565b905080610c22576040517f724efe9100000000000000000000000000000000000000000000000000000000815260040160405180910390fd5b818373ffffffffffffffffffffffffffffffffffffffff167fc72f5aabeb29ac80439775ff547ad1442c87fd0dbb35cfaff04dbd2bc7764b2860405160405180910390a3505050505050565b5f610c8482845f6113d49092919063ffffffff16565b905092915050565b5f3390505f610c9a82611369565b90505f5f90505b8151811015610d405760025f838381518110610cc057610cbf61447e565b5b602002602001015181526020019081526020015f205f8473ffffffffffffffffffffffffffffffffffffffff1673ffffffffffffffffffffffffffffffffffffffff1681526020019081526020015f205f5f82015f9055600182015f9055600282015f6101000a81549060ff021916905550508080600101915050610ca1565b50610d54825f61140290919063ffffffff16565b5f60035f8473ffffffffffffffffffffffffffffffffffffffff1673ffffffffffffffffffffffffffffffffffffffff1681526020019081526020015f20819055508173ffffffffffffffffffffffffffffffffffffffff167f9d00629762554452d03c3b45626436df6ca1c3795d05d04df882f6db481b1be060405160405180910390a250505050565b5f5f5f8484810190610df1919061466c565b91509150610e028260400151611412565b610e38576040517fba50f91100000000000000000000000000000000000000000000000000000000815260040160405180910390fd5b5f8787810190610e4891906149c7565b90505f83604001515190508360600151518114610e6b575f945050505050610f41565b5f5f90505b81811015610f08575f610ec786606001518381518110610e9357610e9261447e565b5b60200260200101515f015187606001518481518110610eb557610eb461447e565b5b602002602001015160200151876104c2565b90508086604001518381518110610ee157610ee061447e565b5b602002602001015114610efc575f9650505050505050610f41565b50806001019050610e70565b505f84602001511480610f1e5750808460200151115b15610f2f575f945050505050610f41565b610f3a8a838661142b565b9450505050505b95945050505050565b5f339050610f5781611309565b610f9857806040517ff91bd6f1000000000000000000000000000000000000000000000000000000008152600401610f8f91906144ab565b60405180910390fd5b5f8203610fd1576040517faabd5a0900000000000000000000000000000000000000000000000000000000815260040160405180910390fd5b81610fe5825f6113bf90919063ffffffff16565b101561101d576040517faabd5a0900000000000000000000000000000000000000000000000000000000815260040160405180910390fd5b8160035f8373ffffffffffffffffffffffffffffffffffffffff1673ffffffffffffffffffffffffffffffffffffffff1681526020019081526020015f20819055508073ffffffffffffffffffffffffffffffffffffffff167ff7e18aa0532694077d6fc7df02e85d86b91ba964f958d1949d45c5776d36eb6e836040516110a59190613c21565b60405180910390a25050565b5f5f6110df845f0160208101906110c89190613bde565b84868061010001906110da9190614a1a565b611558565b905080156110f0575f9150506110f6565b60019150505b92915050565b6003602052805f5260405f205f915090505481565b5f33905061111e81611309565b61115f57806040517ff91bd6f100000000000000000000000000000000000000000000000000000000815260040161115691906144ab565b60405180910390fd5b5f61116b8484846104c2565b905060035f8373ffffffffffffffffffffffffffffffffffffffff1673ffffffffffffffffffffffffffffffffffffffff1681526020019081526020015f20546111be835f6113bf90919063ffffffff16565b116111f5576040517f040053de00000000000000000000000000000000000000000000000000000000815260040160405180910390fd5b5f61120b83835f61176e9092919063ffffffff16565b90508061124f57816040517fb8a051b70000000000000000000000000000000000000000000000000000000081526004016112469190613ccc565b60405180910390fd5b60025f8381526020019081526020015f205f8473ffffffffffffffffffffffffffffffffffffffff1673ffffffffffffffffffffffffffffffffffffffff1681526020019081526020015f205f5f82015f9055600182015f9055600282015f6101000a81549060ff02191690555050818373ffffffffffffffffffffffffffffffffffffffff167f4d46123075b428acdd770efdf0000621c336b9169989cc432c4dc75ff49d32d860405160405180910390a35050505050565b5f5f60035f8473ffffffffffffffffffffffffffffffffffffffff1673ffffffffffffffffffffffffffffffffffffffff1681526020019081526020015f205414159050919050565b5f60018214806113625750600782145b9050919050565b606061137e825f61178590919063ffffffff16565b9050919050565b5f5f61139333868686611558565b905080156113ab57631626ba7e60e01b9150506113b7565b63ffffffff60e01b9150505b949350505050565b5f6113cc835f01836117a6565b905092915050565b5f6113e2845f0184846117c4565b90509392505050565b5f6113f9845f018484611820565b90509392505050565b61140e825f01826118c2565b5050565b5f61142461141f8361191b565b611925565b9050919050565b5f5f835190505f8114806114425750826020015181105b15611450575f915050611551565b5f5f5b8281101561154a575f8760405160200161146d9190613ccc565b60405160208183030381529060405290505f61150f828860600151858151811061149a5761149961447e565b5b6020026020010151604001518a86815181106114b9576114b861447e565b5b60200260200101518a6060015187815181106114d8576114d761447e565b5b60200260200101515f01518b6060015188815181106114fa576114f961447e565b5b6020026020010151602001518c5f0151611972565b9050801561153d578361152190614aa9565b93508660200151841061153c57600195505050505050611551565b5b5050806001019050611453565b505f925050505b9392505050565b5f5f60035f8773ffffffffffffffffffffffffffffffffffffffff1673ffffffffffffffffffffffffffffffffffffffff1681526020019081526020015f205490505f81036115aa575f915050611766565b5f5f5f86868101906115bc9190614af0565b9250925092506115cb83611412565b611601576040517fba50f91100000000000000000000000000000000000000000000000000000000815260040160405180910390fd5b5f835167ffffffffffffffff81111561161d5761161c614283565b5b60405190808252806020026020018201604052801561165657816020015b611643613ac3565b81526020019060019003908161163b5790505b5090505f5b845181101561172b5760025f86838151811061167a5761167961447e565b5b602002602001015181526020019081526020015f205f8c73ffffffffffffffffffffffffffffffffffffffff1673ffffffffffffffffffffffffffffffffffffffff1681526020019081526020015f206040518060600160405290815f820154815260200160018201548152602001600282015f9054906101000a900460ff1615151515815250508282815181106117155761171461447e565b5b602002602001018190525080600101905061165b565b505f6040518060800160405280851515815260200187815260200186815260200183815250905061175d8a848361142b565b96505050505050505b949350505050565b5f61177c845f018484611d81565b90509392505050565b60605f611794845f0184611f1c565b90506060819050809250505092915050565b5f6117bc82845f01611f3b90919063ffffffff16565b905092915050565b5f5f846001015f8481526020019081526020015f205f8573ffffffffffffffffffffffffffffffffffffffff1673ffffffffffffffffffffffffffffffffffffffff1681526020019081526020015f2054141590509392505050565b5f61182c8484846117c4565b6118b7576118478383865f01611f509092919063ffffffff16565b61185c83855f01611f3b90919063ffffffff16565b846001015f8481526020019081526020015f205f8573ffffffffffffffffffffffffffffffffffffffff1673ffffffffffffffffffffffffffffffffffffffff1681526020019081526020015f2081905550600190506118bb565b5f90505b9392505050565b5f6118cd83836117a6565b90505f600190505b818111611915575f6118f3858584866118ee9190614b78565b611f62565b9050611900858583611d81565b5050808061190d90614aa9565b9150506118d5565b50505050565b6060819050919050565b5f60019050600282511061196d57815160051b82016020830192505b60011561196b5782516020840193508351811092508184188302611965575061196b565b50611941565b505b919050565b5f60027fffffffff00000000ffffffffffffffffbce6faada7179e84f3b9cac2fc6325516119a09190614bd8565b8560a0015111156119b3575f9050611d77565b5f6119e18660600151601588606001516119cd9190614c08565b8860200151611f839092919063ffffffff16565b90507fff1a2a9176d650e4a99dedb58f1793003935130579fe17b5a3f698ac5b00e634818051906020012014611a1a575f915050611d77565b5f611a2489611f99565b604051602001611a349190614cc1565b60405160208183030381529060405290505f611a73886040015183518a60400151611a5f9190614c08565b8a60200151611f839092919063ffffffff16565b90508180519060200120818051906020012014611a95575f9350505050611d77565b600160f81b7effffffffffffffffffffffffffffffffffffffffffffffffffffffffffffff1916600160f81b895f0151602081518110611ad857611ad761447e565b5b602001015160f81c60f81b167effffffffffffffffffffffffffffffffffffffffffffffffffffffffffffff191614611b16575f9350505050611d77565b888015611b925750600460f81b7effffffffffffffffffffffffffffffffffffffffffffffffffffffffffffff1916600460f81b895f0151602081518110611b6157611b6061447e565b5b602001015160f81c60f81b167effffffffffffffffffffffffffffffffffffffffffffffffffffffffffffff191614155b15611ba2575f9350505050611d77565b5f60028960200151604051611bb79190614d39565b602060405180830381855afa158015611bd2573d5f5f3e3d5ffd5b5050506040513d601f19601f82011682018060405250810190611bf59190614d63565b90505f60028a5f015183604051602001611c10929190614dae565b604051602081830303815290604052604051611c2c9190614d39565b602060405180830381855afa158015611c47573d5f5f3e3d5ffd5b5050506040513d601f19601f82011682018060405250810190611c6a9190614d63565b90505f818b608001518c60a001518c8c604051602001611c8e959493929190614dd5565b60405160208183030381529060405290508715611d59575f5f61010073ffffffffffffffffffffffffffffffffffffffff1683604051611cce9190614d39565b5f60405180830381855afa9150503d805f8114611d06576040519150601f19603f3d011682016040523d82523d5f602084013e611d0b565b606091505b5091509150818015611d1e57505f815114155b15611d4957600181806020019051810190611d399190614e3a565b1498505050505050505050611d77565b5f98505050505050505050611d77565b611d6e828c608001518d60a001518d8d611fc5565b96505050505050505b9695505050505050565b5f5f846001015f8481526020019081526020015f205f8573ffffffffffffffffffffffffffffffffffffffff1673ffffffffffffffffffffffffffffffffffffffff1681526020019081526020015f205490505f8114611f10575f600182611de99190614b78565b90505f6001611e0387895f01611f3b90919063ffffffff16565b611e0d9190614b78565b9050808214611e9e575f611e2e87838a5f016121459092919063ffffffff16565b9050611e498784838b5f0161215c909392919063ffffffff16565b83886001015f8381526020019081526020015f205f8973ffffffffffffffffffffffffffffffffffffffff1673ffffffffffffffffffffffffffffffffffffffff1681526020019081526020015f2081905550505b611eb386885f0161217090919063ffffffff16565b866001015f8681526020019081526020015f205f8773ffffffffffffffffffffffffffffffffffffffff1673ffffffffffffffffffffffffffffffffffffffff1681526020019081526020015f205f905560019350505050611f15565b5f9150505b9392505050565b6060611f3382845f0161218090919063ffffffff16565b905092915050565b5f611f48835f0183612196565b905092915050565b611f5d835f0183836121af565b505050565b5f611f7a8383865f016121459092919063ffffffff16565b90509392505050565b6060611f908484846121d3565b90509392505050565b6060611fbe82604051806060016040528060408152602001614ea7604091395f612245565b9050919050565b5f5f851480611ff457507fffffffff00000000ffffffffffffffffbce6faada7179e84f3b9cac2fc6325518510155b80611ffe57505f84145b8061202957507fffffffff00000000ffffffffffffffffbce6faada7179e84f3b9cac2fc6325518410155b15612036575f905061213c565b61204083836123d4565b61204c575f905061213c565b5f612056856125c5565b90505f7fffffffff00000000ffffffffffffffffbce6faada7179e84f3b9cac2fc6325518061208857612087614bab565b5b82895f1c0990505f7fffffffff00000000ffffffffffffffffbce6faada7179e84f3b9cac2fc632551806120bf576120be614bab565b5b83890990505f6120d187878585612649565b90507fffffffff00000000ffffffffffffffffbce6faada7179e84f3b9cac2fc6325518061210257612101614bab565b5b897fffffffff00000000ffffffffffffffffbce6faada7179e84f3b9cac2fc63255161212e9190614b78565b820890505f81149450505050505b95945050505050565b5f612153845f018484613182565b90509392505050565b61216a845f0184848461319f565b50505050565b61217c825f01826131b9565b5050565b606061218e835f01836131ff565b905092915050565b5f5f6121a284846132a7565b9050805491505092915050565b5f6121ba84846132a7565b9050600181540182816020028301558082555050505050565b606083518281116121e2578092505b8381116121ed578093505b8284101561223d576040519150838303848601601f1980601f8401165b60011561222457808301518187015281810190508061220a575b508260208601015f815260208101604052838652505050505b509392505050565b60605f8451036122655760405180602001604052805f81525090506123cd565b5f8261229657600360028651600461227d9190614e65565b6122879190614c08565b6122919190614bd8565b6122bd565b6003600286516122a69190614c08565b6122b09190614bd8565b60046122bc9190614e65565b5b90505f8167ffffffffffffffff8111156122da576122d9614283565b5b6040519080825280601f01601f19166020018201604052801561230c5781602001600182028036833780820191505090505b509050600185016020820187885189016020810180515f82525b82841015612381576003840193508351603f8160121c168701518653600186019550603f81600c1c168701518653600186019550603f8160061c168701518653600186019550603f8116870151865360018601955050612326565b80825289156123c15760038c5106600181146123a457600281146123b7576123bf565b603d6001870353603d60028703536123bf565b603d60018703535b505b50505050505080925050505b9392505050565b5f7fffffffff00000001000000000000000000000000ffffffffffffffffffffffff8310158061242457507fffffffff00000001000000000000000000000000ffffffffffffffffffffffff8210155b8061243957505f8314801561243857505f82145b5b15612446575f90506125bf565b5f7fffffffff00000001000000000000000000000000ffffffffffffffffffffffff8061247657612475614bab565b5b83840990505f7fffffffff00000001000000000000000000000000ffffffffffffffffffffffff806124ab576124aa614bab565b5b7fffffffff00000001000000000000000000000000ffffffffffffffffffffffff806124da576124d9614bab565b5b7fffffffff00000001000000000000000000000000fffffffffffffffffffffffc87097fffffffff00000001000000000000000000000000ffffffffffffffffffffffff8061252c5761252b614bab565b5b877fffffffff00000001000000000000000000000000ffffffffffffffffffffffff8061255c5761255b614bab565b5b898a09090890507fffffffff00000001000000000000000000000000ffffffffffffffffffffffff8061259257612591614bab565b5b7f5ac635d8aa3a93e7b3ebbd55769886bc651d06b0cc53b0f63bce3c3e27d2604b82089050808214925050505b92915050565b5f60405160208152602080820152602060408201528260608201527fffffffff00000000ffffffffffffffffbce6faada7179e84f3b9cac2fc63254f60808201527fffffffff00000000ffffffffffffffffbce6faada7179e84f3b9cac2fc63255160a082015260208160c08360055f19fa61263f575f5ffd5b8051915050919050565b5f5f5f5f5f60ff90505f5f5f8914801561266257505f88145b15612675575f965050505050505061317a565b6126c17f6b17d1f2e12c4247f8bce6e563a440f277037d812deb33a0f4a13945d898c2967f4fe342e2fe1a7f9b8ee7eb4a7c0f9e162bce33576b315ececbb6406837bf51f58d8d6132bb565b80925081935050505f821480156126d757505f81145b15612757577fffffffff00000000ffffffffffffffffbce6faada7179e84f3b9cac2fc6325518061270b5761270a614bab565b5b887fffffffff00000000ffffffffffffffffbce6faada7179e84f3b9cac2fc632551038a0898505f97505f8914801561274357505f88145b15612756575f965050505050505061317a565b5b600189841c16600189851c1660011b015b5f810361278c5760018403935060018a851c1660018a861c1660011b019050612768565b50600189841c16600189851c1660011b019550600186036127ee577f6b17d1f2e12c4247f8bce6e563a440f277037d812deb33a0f4a13945d898c29696507f4fe342e2fe1a7f9b8ee7eb4a7c0f9e162bce33576b315ececbb6406837bf51f593505b600286036127fd578a96508993505b6003860361280c578196508093505b60018303925060019550600194505b827fffffffffffffffffffffffffffffffffffffffffffffffffffffffffffffffff11156130d2577fffffffff00000001000000000000000000000000ffffffffffffffffffffffff846002097fffffffff00000001000000000000000000000000ffffffffffffffffffffffff8182097fffffffff00000001000000000000000000000000ffffffffffffffffffffffff818a097fffffffff00000001000000000000000000000000ffffffffffffffffffffffff82840992507fffffffff00000001000000000000000000000000ffffffffffffffffffffffff807fffffffff00000001000000000000000000000000ffffffffffffffffffffffff8b8d087fffffffff00000001000000000000000000000000ffffffffffffffffffffffff8c7fffffffff00000001000000000000000000000000ffffffffffffffffffffffff038e08096003097fffffffff00000001000000000000000000000000ffffffffffffffffffffffff89850998507fffffffff00000001000000000000000000000000ffffffffffffffffffffffff8a840999507fffffffff00000001000000000000000000000000ffffffffffffffffffffffff80837fffffffff00000001000000000000000000000000fffffffffffffffffffffffd097fffffffff00000001000000000000000000000000ffffffffffffffffffffffff838409089a507fffffffff00000001000000000000000000000000ffffffffffffffffffffffff80837fffffffff00000001000000000000000000000000ffffffffffffffffffffffff038d08820992507fffffffff00000001000000000000000000000000ffffffffffffffffffffffff837fffffffff00000001000000000000000000000000ffffffffffffffffffffffff8a870908975060018d881c1660018d891c1660011b01905080612af757877fffffffff00000001000000000000000000000000ffffffffffffffffffffffff039750505050506130c7565b60018103612b46577f6b17d1f2e12c4247f8bce6e563a440f277037d812deb33a0f4a13945d898c29693507f4fe342e2fe1a7f9b8ee7eb4a7c0f9e162bce33576b315ececbb6406837bf51f592505b60028103612b55578e93508d92505b60038103612b64578593508492505b89612b8057839a508297506001995060019850505050506130c7565b7fffffffff00000001000000000000000000000000ffffffffffffffffffffffff887fffffffff00000001000000000000000000000000ffffffffffffffffffffffff8b8609087fffffffff00000001000000000000000000000000ffffffffffffffffffffffff8c7fffffffff00000001000000000000000000000000ffffffffffffffffffffffff037fffffffff00000001000000000000000000000000ffffffffffffffffffffffff8d880908935080612ec05783612ebf577fffffffff00000001000000000000000000000000ffffffffffffffffffffffff897fffffffff00000001000000000000000000000000fffffffffffffffffffffffd0994507fffffffff00000001000000000000000000000000ffffffffffffffffffffffff85860993507fffffffff00000001000000000000000000000000ffffffffffffffffffffffff848d0992507fffffffff00000001000000000000000000000000ffffffffffffffffffffffff84860994507fffffffff00000001000000000000000000000000ffffffffffffffffffffffff808c7fffffffff00000001000000000000000000000000ffffffffffffffffffffffff038e087fffffffff00000001000000000000000000000000ffffffffffffffffffffffff8d8f080990507fffffffff00000001000000000000000000000000ffffffffffffffffffffffff8160030991507fffffffff00000001000000000000000000000000ffffffffffffffffffffffff8a860999507fffffffff00000001000000000000000000000000ffffffffffffffffffffffff8b85099a507fffffffff00000001000000000000000000000000ffffffffffffffffffffffff80847fffffffff00000001000000000000000000000000fffffffffffffffffffffffd097fffffffff00000001000000000000000000000000ffffffffffffffffffffffff848509089b507fffffffff00000001000000000000000000000000ffffffffffffffffffffffff808d7fffffffff00000001000000000000000000000000ffffffffffffffffffffffff038508830993507fffffffff00000001000000000000000000000000ffffffffffffffffffffffff808a87098508985050505050506130c7565b5b7fffffffff00000001000000000000000000000000ffffffffffffffffffffffff84850991507fffffffff00000001000000000000000000000000ffffffffffffffffffffffff8483097fffffffff00000001000000000000000000000000ffffffffffffffffffffffff838d099b507fffffffff00000001000000000000000000000000ffffffffffffffffffffffff818c099a507fffffffff00000001000000000000000000000000ffffffffffffffffffffffff838e097fffffffff00000001000000000000000000000000ffffffffffffffffffffffff80827fffffffff00000001000000000000000000000000fffffffffffffffffffffffd097fffffffff00000001000000000000000000000000ffffffffffffffffffffffff847fffffffff00000001000000000000000000000000ffffffffffffffffffffffff037fffffffff00000001000000000000000000000000ffffffffffffffffffffffff878809080893507fffffffff00000001000000000000000000000000ffffffffffffffffffffffff80838d097fffffffff00000001000000000000000000000000ffffffffffffffffffffffff857fffffffff00000001000000000000000000000000ffffffffffffffffffffffff887fffffffff00000001000000000000000000000000ffffffffffffffffffffffff03860809089a50839d50505050505050505b60018303925061281b565b60405186606082015260208152602080820152602060408201527fffffffff00000001000000000000000000000000fffffffffffffffffffffffd60808201527fffffffff00000001000000000000000000000000ffffffffffffffffffffffff60a082015260208160c08360055f19fa61314b575f5ffd5b7fffffffff00000001000000000000000000000000ffffffffffffffffffffffff815189099750505050505050505b949350505050565b5f61319661319085856132a7565b83613368565b90509392505050565b6131b36131ac85856132a7565b8383613394565b50505050565b5f6131c483836132a7565b90505f815490505f81036131d95750506131fb565b6131f2826001836131ea9190614b78565b5f5f1b613394565b60018103825550505b5050565b60605f61320c84846132a7565b90505f815490508067ffffffffffffffff81111561322d5761322c614283565b5b60405190808252806020026020018201604052801561325b5781602001602082028036833780820191505090505b5092505f5b8181101561329e576132728382613368565b8482815181106132855761328461447e565b5b6020026020010181815250508080600101915050613260565b50505092915050565b5f815f528260205260405f20905092915050565b5f5f5f5f6132c988886133bd565b156132db57858593509350505061335f565b6132e586866133bd565b156132f757878793509350505061335f565b858814801561330557508487145b1561332c5761331788886001806133c9565b809450819550829a50839b505050505061334c565b61333b88886001808a8a613651565b809450819550829a50839b50505050505b61335888888484613955565b9350935050505b94509492505050565b5f8254821061338257638277484f5f52816020526024601cfd5b60018201602002830154905092915050565b825482106133ad57638277484f5f52816020526024601cfd5b8060018301602002840155505050565b5f5f8214905092915050565b5f5f5f5f7fffffffff00000001000000000000000000000000ffffffffffffffffffffffff8760020993507fffffffff00000001000000000000000000000000ffffffffffffffffffffffff84850991507fffffffff00000001000000000000000000000000ffffffffffffffffffffffff82890990507fffffffff00000001000000000000000000000000ffffffffffffffffffffffff82850992507fffffffff00000001000000000000000000000000ffffffffffffffffffffffff86830991507fffffffff00000001000000000000000000000000ffffffffffffffffffffffff807fffffffff00000001000000000000000000000000ffffffffffffffffffffffff888b087fffffffff00000001000000000000000000000000ffffffffffffffffffffffff897fffffffff00000001000000000000000000000000ffffffffffffffffffffffff038c080960030995507fffffffff00000001000000000000000000000000ffffffffffffffffffffffff80827fffffffff00000001000000000000000000000000fffffffffffffffffffffffd097fffffffff00000001000000000000000000000000ffffffffffffffffffffffff8889090893507fffffffff00000001000000000000000000000000ffffffffffffffffffffffff80857fffffffff00000001000000000000000000000000ffffffffffffffffffffffff038308870997507fffffffff00000001000000000000000000000000ffffffffffffffffffffffff85840990507fffffffff00000001000000000000000000000000ffffffffffffffffffffffff808885097fffffffff00000001000000000000000000000000ffffffffffffffffffffffff0389089250945094509450949050565b5f5f5f5f5f890361366e5785856001809350935093509350613948565b887fffffffff00000001000000000000000000000000ffffffffffffffffffffffff0398507fffffffff00000001000000000000000000000000ffffffffffffffffffffffff897fffffffff00000001000000000000000000000000ffffffffffffffffffffffff8988090894507fffffffff00000001000000000000000000000000ffffffffffffffffffffffff8a7fffffffff00000001000000000000000000000000ffffffffffffffffffffffff037fffffffff00000001000000000000000000000000ffffffffffffffffffffffff8a89090895507fffffffff00000001000000000000000000000000ffffffffffffffffffffffff86870993507fffffffff00000001000000000000000000000000ffffffffffffffffffffffff86850992507fffffffff00000001000000000000000000000000ffffffffffffffffffffffff84890991507fffffffff00000001000000000000000000000000ffffffffffffffffffffffff83880990507fffffffff00000001000000000000000000000000ffffffffffffffffffffffff848b0997507fffffffff00000001000000000000000000000000ffffffffffffffffffffffff80897fffffffff00000001000000000000000000000000fffffffffffffffffffffffd097fffffffff00000001000000000000000000000000ffffffffffffffffffffffff857fffffffff00000001000000000000000000000000ffffffffffffffffffffffff037fffffffff00000001000000000000000000000000ffffffffffffffffffffffff898a09080893507fffffffff00000001000000000000000000000000ffffffffffffffffffffffff80848b097fffffffff00000001000000000000000000000000ffffffffffffffffffffffff877fffffffff00000001000000000000000000000000ffffffffffffffffffffffff887fffffffff00000001000000000000000000000000ffffffffffffffffffffffff038d08090892505b9650965096509692505050565b5f5f5f61396184613a3f565b90507fffffffff00000001000000000000000000000000ffffffffffffffffffffffff8061399257613991614bab565b5b81870991505f7fffffffff00000001000000000000000000000000ffffffffffffffffffffffff806139c7576139c6614bab565b5b82870990507fffffffff00000001000000000000000000000000ffffffffffffffffffffffff806139fb576139fa614bab565b5b81820991507fffffffff00000001000000000000000000000000ffffffffffffffffffffffff80613a2f57613a2e614bab565b5b8289099350505094509492505050565b5f60405160208152602080820152602060408201528260608201527fffffffff00000001000000000000000000000000fffffffffffffffffffffffd60808201527fffffffff00000001000000000000000000000000ffffffffffffffffffffffff60a082015260208160c08360055f19fa613ab9575f5ffd5b8051915050919050565b60405180606001604052805f81526020015f81526020015f151581525090565b5f81519050919050565b5f82825260208201905092915050565b8281835e5f83830152505050565b5f601f19601f8301169050919050565b5f613b2582613ae3565b613b2f8185613aed565b9350613b3f818560208601613afd565b613b4881613b0b565b840191505092915050565b5f6020820190508181035f830152613b6b8184613b1b565b905092915050565b5f604051905090565b5f5ffd5b5f5ffd5b5f73ffffffffffffffffffffffffffffffffffffffff82169050919050565b5f613bad82613b84565b9050919050565b613bbd81613ba3565b8114613bc7575f5ffd5b50565b5f81359050613bd881613bb4565b92915050565b5f60208284031215613bf357613bf2613b7c565b5b5f613c0084828501613bca565b91505092915050565b5f819050919050565b613c1b81613c09565b82525050565b5f602082019050613c345f830184613c12565b92915050565b613c4381613c09565b8114613c4d575f5ffd5b50565b5f81359050613c5e81613c3a565b92915050565b5f5f5f60608486031215613c7b57613c7a613b7c565b5b5f613c8886828701613c50565b9350506020613c9986828701613c50565b9250506040613caa86828701613bca565b9150509250925092565b5f819050919050565b613cc681613cb4565b82525050565b5f602082019050613cdf5f830184613cbd565b92915050565b613cee81613cb4565b8114613cf8575f5ffd5b50565b5f81359050613d0981613ce5565b92915050565b5f5f60408385031215613d2557613d24613b7c565b5b5f613d3285828601613cfb565b9250506020613d4385828601613bca565b9150509250929050565b5f8115159050919050565b613d6181613d4d565b82525050565b5f606082019050613d7a5f830186613c12565b613d876020830185613c12565b613d946040830184613d58565b949350505050565b5f602082019050613daf5f830184613d58565b92915050565b5f5ffd5b5f5ffd5b5f5ffd5b5f5f83601f840112613dd657613dd5613db5565b5b8235905067ffffffffffffffff811115613df357613df2613db9565b5b602083019150836001820283011115613e0f57613e0e613dbd565b5b9250929050565b5f5f60208385031215613e2c57613e2b613b7c565b5b5f83013567ffffffffffffffff811115613e4957613e48613b80565b5b613e5585828601613dc1565b92509250509250929050565b613e6a81613d4d565b8114613e74575f5ffd5b50565b5f81359050613e8581613e61565b92915050565b5f5f5f60608486031215613ea257613ea1613b7c565b5b5f613eaf86828701613c50565b9350506020613ec086828701613c50565b9250506040613ed186828701613e77565b9150509250925092565b5f5f5f5f5f60608688031215613ef457613ef3613b7c565b5b5f613f0188828901613cfb565b955050602086013567ffffffffffffffff811115613f2257613f21613b80565b5b613f2e88828901613dc1565b9450945050604086013567ffffffffffffffff811115613f5157613f50613b80565b5b613f5d88828901613dc1565b92509250509295509295909350565b5f60208284031215613f8157613f80613b7c565b5b5f613f8e84828501613c50565b91505092915050565b5f5ffd5b5f6101208284031215613fb157613fb0613f97565b5b81905092915050565b5f5f60408385031215613fd057613fcf613b7c565b5b5f83013567ffffffffffffffff811115613fed57613fec613b80565b5b613ff985828601613f9b565b925050602061400a85828601613cfb565b9150509250929050565b5f819050919050565b5f61403761403261402d84613c09565b614014565b613c09565b9050919050565b6140478161401d565b82525050565b5f6020820190506140605f83018461403e565b92915050565b5f5f6040838503121561407c5761407b613b7c565b5b5f61408985828601613c50565b925050602061409a85828601613c50565b9150509250929050565b5f81519050919050565b5f82825260208201905092915050565b5f819050602082019050919050565b6140d681613cb4565b82525050565b5f6140e783836140cd565b60208301905092915050565b5f602082019050919050565b5f614109826140a4565b61411381856140ae565b935061411e836140be565b805f5b8381101561414e57815161413588826140dc565b9750614140836140f3565b925050600181019050614121565b5085935050505092915050565b5f6020820190508181035f83015261417381846140ff565b905092915050565b5f5f5f5f6060858703121561419357614192613b7c565b5b5f6141a087828801613bca565b94505060206141b187828801613cfb565b935050604085013567ffffffffffffffff8111156141d2576141d1613b80565b5b6141de87828801613dc1565b925092505092959194509250565b5f7fffffffff0000000000000000000000000000000000000000000000000000000082169050919050565b614220816141ec565b82525050565b5f6020820190506142395f830184614217565b92915050565b61424881613ba3565b82525050565b5f6060820190506142615f830186613c12565b61426e6020830185613c12565b61427b604083018461423f565b949350505050565b7f4e487b71000000000000000000000000000000000000000000000000000000005f52604160045260245ffd5b6142b982613b0b565b810181811067ffffffffffffffff821117156142d8576142d7614283565b5b80604052505050565b5f6142ea613b73565b90506142f682826142b0565b919050565b5f67ffffffffffffffff82111561431557614314614283565b5b602082029050602081019050919050565b5f5ffd5b5f5ffd5b5f6060828403121561434357614342614326565b5b61434d60606142e1565b90505f61435c84828501613c50565b5f83015250602061436f84828501613c50565b602083015250604061438384828501613e77565b60408301525092915050565b5f6143a161439c846142fb565b6142e1565b905080838252602082019050606084028301858111156143c4576143c3613dbd565b5b835b818110156143ed57806143d9888261432e565b8452602084019350506060810190506143c6565b5050509392505050565b5f82601f83011261440b5761440a613db5565b5b813561441b84826020860161438f565b91505092915050565b5f5f6040838503121561443a57614439613b7c565b5b5f61444785828601613c50565b925050602083013567ffffffffffffffff81111561446857614467613b80565b5b614474858286016143f7565b9150509250929050565b7f4e487b71000000000000000000000000000000000000000000000000000000005f52603260045260245ffd5b5f6020820190506144be5f83018461423f565b92915050565b5f67ffffffffffffffff8211156144de576144dd614283565b5b602082029050602081019050919050565b5f6145016144fc846144c4565b6142e1565b9050808382526020820190506020840283018581111561452457614523613dbd565b5b835b8181101561454d57806145398882613cfb565b845260208401935050602081019050614526565b5050509392505050565b5f82601f83011261456b5761456a613db5565b5b813561457b8482602086016144ef565b91505092915050565b5f6080828403121561459957614598614326565b5b6145a360806142e1565b90505f6145b284828501613e77565b5f8301525060206145c584828501613c50565b602083015250604082013567ffffffffffffffff8111156145e9576145e861432a565b5b6145f584828501614557565b604083015250606082013567ffffffffffffffff8111156146195761461861432a565b5b614625848285016143f7565b60608301525092915050565b5f61463b82613b84565b9050919050565b61464b81614631565b8114614655575f5ffd5b50565b5f8135905061466681614642565b92915050565b5f5f6040838503121561468257614681613b7c565b5b5f83013567ffffffffffffffff81111561469f5761469e613b80565b5b6146ab85828601614584565b92505060206146bc85828601614658565b9150509250929050565b5f67ffffffffffffffff8211156146e0576146df614283565b5b602082029050602081019050919050565b5f5ffd5b5f67ffffffffffffffff82111561470f5761470e614283565b5b61471882613b0b565b9050602081019050919050565b828183375f83830152505050565b5f614745614740846146f5565b6142e1565b905082815260208101848484011115614761576147606146f1565b5b61476c848285614725565b509392505050565b5f82601f83011261478857614787613db5565b5b8135614798848260208601614733565b91505092915050565b5f67ffffffffffffffff8211156147bb576147ba614283565b5b6147c482613b0b565b9050602081019050919050565b5f6147e36147de846147a1565b6142e1565b9050828152602081018484840111156147ff576147fe6146f1565b5b61480a848285614725565b509392505050565b5f82601f83011261482657614825613db5565b5b81356148368482602086016147d1565b91505092915050565b5f60c0828403121561485457614853614326565b5b61485e60c06142e1565b90505f82013567ffffffffffffffff81111561487d5761487c61432a565b5b61488984828501614774565b5f83015250602082013567ffffffffffffffff8111156148ac576148ab61432a565b5b6148b884828501614812565b60208301525060406148cc84828501613c50565b60408301525060606148e084828501613c50565b60608301525060806148f484828501613c50565b60808301525060a061490884828501613c50565b60a08301525092915050565b5f614926614921846146c6565b6142e1565b9050808382526020820190506020840283018581111561494957614948613dbd565b5b835b8181101561499057803567ffffffffffffffff81111561496e5761496d613db5565b5b80860161497b898261483f565b8552602085019450505060208101905061494b565b5050509392505050565b5f82601f8301126149ae576149ad613db5565b5b81356149be848260208601614914565b91505092915050565b5f602082840312156149dc576149db613b7c565b5b5f82013567ffffffffffffffff8111156149f9576149f8613b80565b5b614a058482850161499a565b91505092915050565b5f5ffd5b5f5ffd5b5f5ffd5b5f5f83356001602003843603038112614a3657614a35614a0e565b5b80840192508235915067ffffffffffffffff821115614a5857614a57614a12565b5b602083019250600182023603831315614a7457614a73614a16565b5b509250929050565b7f4e487b71000000000000000000000000000000000000000000000000000000005f52601160045260245ffd5b5f614ab382613c09565b91507fffffffffffffffffffffffffffffffffffffffffffffffffffffffffffffffff8203614ae557614ae4614a7c565b5b600182019050919050565b5f5f5f60608486031215614b0757614b06613b7c565b5b5f84013567ffffffffffffffff811115614b2457614b23613b80565b5b614b3086828701614557565b9350506020614b4186828701613e77565b925050604084013567ffffffffffffffff811115614b6257614b61613b80565b5b614b6e8682870161499a565b9150509250925092565b5f614b8282613c09565b9150614b8d83613c09565b9250828203905081811115614ba557614ba4614a7c565b5b92915050565b7f4e487b71000000000000000000000000000000000000000000000000000000005f52601260045260245ffd5b5f614be282613c09565b9150614bed83613c09565b925082614bfd57614bfc614bab565b5b828204905092915050565b5f614c1282613c09565b9150614c1d83613c09565b9250828201905080821115614c3557614c34614a7c565b5b92915050565b7f226368616c6c656e6765223a2200000000000000000000000000000000000000815250565b5f81905092915050565b5f614c7582613ae3565b614c7f8185614c61565b9350614c8f818560208601613afd565b80840191505092915050565b7f2200000000000000000000000000000000000000000000000000000000000000815250565b5f614ccb82614c3b565b600d82019150614cdb8284614c6b565b9150614ce682614c9b565b60018201915081905092915050565b5f81519050919050565b5f81905092915050565b5f614d1382614cf5565b614d1d8185614cff565b9350614d2d818560208601613afd565b80840191505092915050565b5f614d448284614d09565b915081905092915050565b5f81519050614d5d81613ce5565b92915050565b5f60208284031215614d7857614d77613b7c565b5b5f614d8584828501614d4f565b91505092915050565b5f819050919050565b614da8614da382613cb4565b614d8e565b82525050565b5f614db98285614d09565b9150614dc58284614d97565b6020820191508190509392505050565b5f60a082019050614de85f830188613cbd565b614df56020830187613c12565b614e026040830186613c12565b614e0f6060830185613c12565b614e1c6080830184613c12565b9695505050505050565b5f81519050614e3481613c3a565b92915050565b5f60208284031215614e4f57614e4e613b7c565b5b5f614e5c84828501614e26565b91505092915050565b5f614e6f82613c09565b9150614e7a83613c09565b9250828202614e8881613c09565b91508282048414831517614e9f57614e9e614a7c565b5b509291505056fe4142434445464748494a4b4c4d4e4f505152535455565758595a6162636465666768696a6b6c6d6e6f707172737475767778797a303132333435363738392d5fa264697066735822122044ae734363166f4605e99aef8a0876993dec6b86e041f54bcf4733c763b8aa0f64736f6c634300081c0033","linkReferences":{}},"methodIdentifiers":{"addCredential(uint256,uint256,bool)":"7a63a1fd","credentialDetails(bytes32,address)":"40ecfa83","generateCredentialId(uint256,uint256,address)":"31b5b6f3","getCredentialCount(address)":"2d405995","getCredentialIds(address)":"f0ccd0d3","getCredentialInfo(bytes32,address)":"6a839d7d","hasCredential(uint256,uint256,address)":"4ad81f42","hasCredentialById(bytes32,address)":"7ef693bf","isInitialized(address)":"d60b347f","isModuleType(uint256)":"ecd05961","isValidSignatureWithSender(address,bytes32,bytes)":"f551e2ee","name()":"06fdde03","onInstall(bytes)":"6d61fe70","onUninstall(bytes)":"8a91b0e3","removeCredential(uint256,uint256)":"cc5f1aea","setThreshold(uint256)":"960bfe04","threshold(address)":"c86ec2bf","validateSignatureWithData(bytes32,bytes,bytes)":"940d3840","validateUserOp((address,uint256,bytes,bytes,bytes32,uint256,bytes32,bytes,bytes),bytes32)":"97003203","version()":"54fd4d50"},"id":59}