{"abi":[{"type":"function","name":"addOwner","inputs":[{"name":"owner","type":"address","internalType":"address"}],"outputs":[],"stateMutability":"nonpayable"},{"type":"function","name":"getOwners","inputs":[{"name":"account","type":"address","internalType":"address"}],"outputs":[{"name":"ownersArray","type":"address[]","internalType":"address[]"}],"stateMutability":"view"},{"type":"function","name":"isInitialized","inputs":[{"name":"smartAccount","type":"address","internalType":"address"}],"outputs":[{"name":"","type":"bool","internalType":"bool"}],"stateMutability":"view"},{"type":"function","name":"isModuleType","inputs":[{"name":"typeID","type":"uint256","internalType":"uint256"}],"outputs":[{"name":"","type":"bool","internalType":"bool"}],"stateMutability":"pure"},{"type":"function","name":"isValidSignatureWithSender","inputs":[{"name":"","type":"address","internalType":"address"},{"name":"hash","type":"bytes32","internalType":"bytes32"},{"name":"data","type":"bytes","internalType":"bytes"}],"outputs":[{"name":"","type":"bytes4","internalType":"bytes4"}],"stateMutability":"view"},{"type":"function","name":"name","inputs":[],"outputs":[{"name":"","type":"string","internalType":"string"}],"stateMutability":"pure"},{"type":"function","name":"onInstall","inputs":[{"name":"data","type":"bytes","internalType":"bytes"}],"outputs":[],"stateMutability":"nonpayable"},{"type":"function","name":"onUninstall","inputs":[{"name":"","type":"bytes","internalType":"bytes"}],"outputs":[],"stateMutability":"nonpayable"},{"type":"function","name":"ownerCount","inputs":[{"name":"","type":"address","internalType":"address"}],"outputs":[{"name":"","type":"uint256","internalType":"uint256"}],"stateMutability":"view"},{"type":"function","name":"removeOwner","inputs":[{"name":"prevOwner","type":"address","internalType":"address"},{"name":"owner","type":"address","internalType":"address"}],"outputs":[],"stateMutability":"nonpayable"},{"type":"function","name":"setThreshold","inputs":[{"name":"_threshold","type":"uint256","internalType":"uint256"}],"outputs":[],"stateMutability":"nonpayable"},{"type":"function","name":"threshold","inputs":[{"name":"account","type":"address","internalType":"address"}],"outputs":[{"name":"","type":"uint256","internalType":"uint256"}],"stateMutability":"view"},{"type":"function","name":"validateSignatureWithData","inputs":[{"name":"hash","type":"bytes32","internalType":"bytes32"},{"name":"signature","type":"bytes","internalType":"bytes"},{"name":"data","type":"bytes","internalType":"bytes"}],"outputs":[{"name":"","type":"bool","internalType":"bool"}],"stateMutability":"view"},{"type":"function","name":"validateUserOp","inputs":[{"name":"userOp","type":"tuple","internalType":"struct PackedUserOperation","components":[{"name":"sender","type":"address","internalType":"address"},{"name":"nonce","type":"uint256","internalType":"uint256"},{"name":"initCode","type":"bytes","internalType":"bytes"},{"name":"callData","type":"bytes","internalType":"bytes"},{"name":"accountGasLimits","type":"bytes32","internalType":"bytes32"},{"name":"preVerificationGas","type":"uint256","internalType":"uint256"},{"name":"gasFees","type":"bytes32","internalType":"bytes32"},{"name":"paymasterAndData","type":"bytes","internalType":"bytes"},{"name":"signature","type":"bytes","internalType":"bytes"}]},{"name":"userOpHash","type":"bytes32","internalType":"bytes32"}],"outputs":[{"name":"","type":"uint256","internalType":"ERC7579ValidatorBase.ValidationData"}],"stateMutability":"view"},{"type":"function","name":"version","inputs":[],"outputs":[{"name":"","type":"string","internalType":"string"}],"stateMutability":"pure"},{"type":"event","name":"ModuleInitialized","inputs":[{"name":"account","type":"address","indexed":true,"internalType":"address"}],"anonymous":false},{"type":"event","name":"ModuleUninitialized","inputs":[{"name":"account","type":"address","indexed":true,"internalType":"address"}],"anonymous":false},{"type":"event","name":"OwnerAdded","inputs":[{"name":"account","type":"address","indexed":true,"internalType":"address"},{"name":"owner","type":"address","indexed":true,"internalType":"address"}],"anonymous":false},{"type":"event","name":"OwnerRemoved","inputs":[{"name":"account","type":"address","indexed":true,"internalType":"address"},{"name":"owner","type":"address","indexed":true,"internalType":"address"}],"anonymous":false},{"type":"event","name":"ThresholdSet","inputs":[{"name":"account","type":"address","indexed":true,"internalType":"address"},{"name":"threshold","type":"uint256","indexed":false,"internalType":"uint256"}],"anonymous":false},{"type":"error","name":"CannotRemoveOwner","inputs":[]},{"type":"error","name":"InvalidOwner","inputs":[{"name":"owner","type":"address","internalType":"address"}]},{"type":"error","name":"InvalidSignature","inputs":[]},{"type":"error","name":"InvalidThreshold","inputs":[]},{"type":"error","name":"LinkedList_AlreadyInitialized","inputs":[]},{"type":"error","name":"LinkedList_EntryAlreadyInList","inputs":[{"name":"entry","type":"address","internalType":"address"}]},{"type":"error","name":"LinkedList_InvalidEntry","inputs":[{"name":"entry","type":"address","internalType":"address"}]},{"type":"error","name":"LinkedList_InvalidPage","inputs":[]},{"type":"error","name":"MaxOwnersReached","inputs":[]},{"type":"error","name":"ModuleAlreadyInitialized","inputs":[{"name":"smartAccount","type":"address","internalType":"address"}]},{"type":"error","name":"NotInitialized","inputs":[{"name":"smartAccount","type":"address","internalType":"address"}]},{"type":"error","name":"NotSortedAndUnique","inputs":[]},{"type":"error","name":"ThresholdNotSet","inputs":[]}],"bytecode":{"object":"0x6080604052348015600e575f80fd5b506131978061001c5f395ff3fe608060405234801561000f575f80fd5b50600436106100f3575f3560e01c80639700320311610095578063ecd0596111610064578063ecd0596114610293578063f551e2ee146102c3578063fbe5ce0a146102f3578063fd8b84b11461030f576100f3565b806397003203146101d3578063c86ec2bf14610203578063ccfdec8c14610233578063d60b347f14610263576100f3565b80637065cb48116100d15780637065cb481461014f5780638a91b0e31461016b578063940d384014610187578063960bfe04146101b7576100f3565b806306fdde03146100f757806354fd4d50146101155780636d61fe7014610133575b5f80fd5b6100ff61033f565b60405161010c9190612703565b60405180910390f35b61011d61037c565b60405161012a9190612703565b60405180910390f35b61014d60048036038101906101489190612795565b6103b9565b005b6101696004803603810190610164919061283a565b6106bc565b005b61018560048036038101906101809190612795565b6108b6565b005b6101a1600480360381019061019c9190612898565b610a51565b6040516101ae9190612943565b60405180910390f35b6101d160048036038101906101cc919061298f565b610b86565b005b6101ed60048036038101906101e891906129dd565b610d18565b6040516101fa9190612a70565b60405180910390f35b61021d6004803603810190610218919061283a565b610d63565b60405161022a9190612a98565b60405180910390f35b61024d6004803603810190610248919061283a565b610d78565b60405161025a9190612a98565b60405180910390f35b61027d6004803603810190610278919061283a565b610d8d565b60405161028a9190612943565b60405180910390f35b6102ad60048036038101906102a8919061298f565b610dd6565b6040516102ba9190612943565b60405180910390f35b6102dd60048036038101906102d89190612ab1565b610ded565b6040516102ea9190612b5c565b60405180910390f35b61030d60048036038101906103089190612b75565b610e27565b005b6103296004803603810190610324919061283a565b610fa6565b6040516103369190612c6a565b60405180910390f35b60606040518060400160405280601081526020017f4f776e61626c6556616c696461746f7200000000000000000000000000000000815250905090565b60606040518060400160405280600581526020017f312e302e30000000000000000000000000000000000000000000000000000000815250905090565b5f8083838101906103ca9190612dc2565b915091506103d781610fcb565b61040d576040517fe719027300000000000000000000000000000000000000000000000000000000815260040160405180910390fd5b5f8203610446576040517f34b46f4800000000000000000000000000000000000000000000000000000000815260040160405180910390fd5b5f8151905082811015610485576040517faabd5a0900000000000000000000000000000000000000000000000000000000815260040160405180910390fd5b5f3390508360015f8373ffffffffffffffffffffffffffffffffffffffff1673ffffffffffffffffffffffffffffffffffffffff1681526020019081526020015f20819055506020821115610506576040517f2414149d00000000000000000000000000000000000000000000000000000000815260040160405180910390fd5b8160025f8373ffffffffffffffffffffffffffffffffffffffff1673ffffffffffffffffffffffffffffffffffffffff1681526020019081526020015f208190555061055b815f610fe490919063ffffffff16565b5f5b82811015610670575f84828151811061057957610578612e1c565b5b602002602001015190505f73ffffffffffffffffffffffffffffffffffffffff168173ffffffffffffffffffffffffffffffffffffffff16036105f357806040517fb20f76e30000000000000000000000000000000000000000000000000000000081526004016105ea9190612e58565b60405180910390fd5b61060883825f6110e29092919063ffffffff16565b8073ffffffffffffffffffffffffffffffffffffffff168373ffffffffffffffffffffffffffffffffffffffff167fc82bdbbf677a2462f2a7e22e4ba9abd209496b69cd7b868b3b1d28f76e09a40a60405160405180910390a350808060010191505061055d565b508073ffffffffffffffffffffffffffffffffffffffff167f27b541a16df0902e262f34789782092ab25125513b8ed73608e802951771b92860405160405180910390a2505050505050565b5f3390506106c981610d8d565b61070a57806040517ff91bd6f10000000000000000000000000000000000000000000000000000000081526004016107019190612e58565b60405180910390fd5b5f73ffffffffffffffffffffffffffffffffffffffff168273ffffffffffffffffffffffffffffffffffffffff160361077a57816040517fb20f76e30000000000000000000000000000000000000000000000000000000081526004016107719190612e58565b60405180910390fd5b602060025f8373ffffffffffffffffffffffffffffffffffffffff1673ffffffffffffffffffffffffffffffffffffffff1681526020019081526020015f2054106107f1576040517f2414149d00000000000000000000000000000000000000000000000000000000815260040160405180910390fd5b60025f8273ffffffffffffffffffffffffffffffffffffffff1673ffffffffffffffffffffffffffffffffffffffff1681526020019081526020015f205f81548092919061083e90612e9e565b919050555061085881835f6110e29092919063ffffffff16565b8173ffffffffffffffffffffffffffffffffffffffff168173ffffffffffffffffffffffffffffffffffffffff167fc82bdbbf677a2462f2a7e22e4ba9abd209496b69cd7b868b3b1d28f76e09a40a60405160405180910390a35050565b5f33905060606108d582600160205f61149f909392919063ffffffff16565b50809150505f5b8151811015610983575f8282815181106108f9576108f8612e1c565b5b6020026020010151905061091b846001835f611837909392919063ffffffff16565b8073ffffffffffffffffffffffffffffffffffffffff168473ffffffffffffffffffffffffffffffffffffffff167fe594d081b4382713733fe631966432c9cea5199afb2db5c3c1931f9f9300367960405160405180910390a35080806001019150506108dc565b505f60015f8473ffffffffffffffffffffffffffffffffffffffff1673ffffffffffffffffffffffffffffffffffffffff1681526020019081526020015f20819055505f60025f8473ffffffffffffffffffffffffffffffffffffffff1673ffffffffffffffffffffffffffffffffffffffff1681526020019081526020015f20819055508173ffffffffffffffffffffffffffffffffffffffff167f9d00629762554452d03c3b45626436df6ca1c3795d05d04df882f6db481b1be060405160405180910390a250505050565b5f805f8484810190610a639190612dc2565b91509150610a7081610fcb565b610a7e575f92505050610b7d565b5f8203610a8f575f92505050610b7d565b5f610ae6610a9c8a611bf3565b89898080601f0160208091040260200160405190810160405280939291908181526020018383808284375f81840152601f19601f8201169050808301925050505050505085611c23565b9050610af181611e25565b610afa81611e39565b5f80825190505f5b81811015610b5e575f610b38858381518110610b2157610b20612e1c565b5b602002602001015187611e4d90919063ffffffff16565b5090508015610b50578380610b4c90612e9e565b9450505b508080600101915050610b02565b50848210610b7457600195505050505050610b7d565b5f955050505050505b95945050505050565b5f339050610b9381610d8d565b610bd457806040517ff91bd6f1000000000000000000000000000000000000000000000000000000008152600401610bcb9190612e58565b60405180910390fd5b5f8203610c0d576040517faabd5a0900000000000000000000000000000000000000000000000000000000815260040160405180910390fd5b8160025f8373ffffffffffffffffffffffffffffffffffffffff1673ffffffffffffffffffffffffffffffffffffffff1681526020019081526020015f20541015610c84576040517faabd5a0900000000000000000000000000000000000000000000000000000000815260040160405180910390fd5b8160015f8373ffffffffffffffffffffffffffffffffffffffff1673ffffffffffffffffffffffffffffffffffffffff1681526020019081526020015f20819055508073ffffffffffffffffffffffffffffffffffffffff167ff7e18aa0532694077d6fc7df02e85d86b91ba964f958d1949d45c5776d36eb6e83604051610d0c9190612a98565b60405180910390a25050565b5f80610d46845f016020810190610d2f919061283a565b8486806101000190610d419190612ef1565b611e87565b90508015610d57575f915050610d5d565b60019150505b92915050565b6001602052805f5260405f205f915090505481565b6002602052805f5260405f205f915090505481565b5f8060015f8473ffffffffffffffffffffffffffffffffffffffff1673ffffffffffffffffffffffffffffffffffffffff1681526020019081526020015f205414159050919050565b5f6001821480610de65750600782145b9050919050565b5f80610dfb33868686611e87565b90508015610e1357631626ba7e60e01b915050610e1f565b63ffffffff60e01b9150505b949350505050565b5f33905060015f8273ffffffffffffffffffffffffffffffffffffffff1673ffffffffffffffffffffffffffffffffffffffff1681526020019081526020015f205460025f8373ffffffffffffffffffffffffffffffffffffffff1673ffffffffffffffffffffffffffffffffffffffff1681526020019081526020015f205403610ede576040517f1e6d14ea00000000000000000000000000000000000000000000000000000000815260040160405180910390fd5b610ef58184845f611837909392919063ffffffff16565b60025f8273ffffffffffffffffffffffffffffffffffffffff1673ffffffffffffffffffffffffffffffffffffffff1681526020019081526020015f205f815480929190610f4290612f53565b91905055508173ffffffffffffffffffffffffffffffffffffffff168173ffffffffffffffffffffffffffffffffffffffff167fe594d081b4382713733fe631966432c9cea5199afb2db5c3c1931f9f9300367960405160405180910390a3505050565b6060610fc182600160205f61149f909392919063ffffffff16565b5080915050919050565b5f610fdd610fd883611fc9565b611fd3565b9050919050565b610fee8282612020565b15611025576040517f53c85e6600000000000000000000000000000000000000000000000000000000815260040160405180910390fd5b6001825f015f600173ffffffffffffffffffffffffffffffffffffffff1673ffffffffffffffffffffffffffffffffffffffff1681526020019081526020015f205f8373ffffffffffffffffffffffffffffffffffffffff1673ffffffffffffffffffffffffffffffffffffffff1681526020019081526020015f205f6101000a81548173ffffffffffffffffffffffffffffffffffffffff021916908373ffffffffffffffffffffffffffffffffffffffff1602179055505050565b5f73ffffffffffffffffffffffffffffffffffffffff168173ffffffffffffffffffffffffffffffffffffffff1614806111485750600173ffffffffffffffffffffffffffffffffffffffff168173ffffffffffffffffffffffffffffffffffffffff16145b1561118a57806040517f7c84ecfb0000000000000000000000000000000000000000000000000000000081526004016111819190612e58565b60405180910390fd5b5f73ffffffffffffffffffffffffffffffffffffffff16835f015f8373ffffffffffffffffffffffffffffffffffffffff1673ffffffffffffffffffffffffffffffffffffffff1681526020019081526020015f205f8473ffffffffffffffffffffffffffffffffffffffff1673ffffffffffffffffffffffffffffffffffffffff1681526020019081526020015f205f9054906101000a900473ffffffffffffffffffffffffffffffffffffffff1673ffffffffffffffffffffffffffffffffffffffff161461129257806040517f40d3d1a40000000000000000000000000000000000000000000000000000000081526004016112899190612e58565b60405180910390fd5b825f015f600173ffffffffffffffffffffffffffffffffffffffff1673ffffffffffffffffffffffffffffffffffffffff1681526020019081526020015f205f8373ffffffffffffffffffffffffffffffffffffffff1673ffffffffffffffffffffffffffffffffffffffff1681526020019081526020015f205f9054906101000a900473ffffffffffffffffffffffffffffffffffffffff16835f015f8373ffffffffffffffffffffffffffffffffffffffff1673ffffffffffffffffffffffffffffffffffffffff1681526020019081526020015f205f8473ffffffffffffffffffffffffffffffffffffffff1673ffffffffffffffffffffffffffffffffffffffff1681526020019081526020015f205f6101000a81548173ffffffffffffffffffffffffffffffffffffffff021916908373ffffffffffffffffffffffffffffffffffffffff16021790555080835f015f600173ffffffffffffffffffffffffffffffffffffffff1673ffffffffffffffffffffffffffffffffffffffff1681526020019081526020015f205f8473ffffffffffffffffffffffffffffffffffffffff1673ffffffffffffffffffffffffffffffffffffffff1681526020019081526020015f205f6101000a81548173ffffffffffffffffffffffffffffffffffffffff021916908373ffffffffffffffffffffffffffffffffffffffff160217905550505050565b60605f600173ffffffffffffffffffffffffffffffffffffffff168473ffffffffffffffffffffffffffffffffffffffff16141580156114e757506114e58686866120f2565b155b1561152957836040517f7c84ecfb0000000000000000000000000000000000000000000000000000000081526004016115209190612e58565b60405180910390fd5b5f8303611562576040517ff725081700000000000000000000000000000000000000000000000000000000815260040160405180910390fd5b8267ffffffffffffffff81111561157c5761157b612c8a565b5b6040519080825280602002602001820160405280156115aa5781602001602082028036833780820191505090505b5091505f865f015f8673ffffffffffffffffffffffffffffffffffffffff1673ffffffffffffffffffffffffffffffffffffffff1681526020019081526020015f205f8773ffffffffffffffffffffffffffffffffffffffff1673ffffffffffffffffffffffffffffffffffffffff1681526020019081526020015f205f9054906101000a900473ffffffffffffffffffffffffffffffffffffffff1691505b5f73ffffffffffffffffffffffffffffffffffffffff168273ffffffffffffffffffffffffffffffffffffffff16141580156116b35750600173ffffffffffffffffffffffffffffffffffffffff168273ffffffffffffffffffffffffffffffffffffffff1614155b80156116be57508381105b156117bf57818382815181106116d7576116d6612e1c565b5b602002602001019073ffffffffffffffffffffffffffffffffffffffff16908173ffffffffffffffffffffffffffffffffffffffff1681525050865f015f8373ffffffffffffffffffffffffffffffffffffffff1673ffffffffffffffffffffffffffffffffffffffff1681526020019081526020015f205f8773ffffffffffffffffffffffffffffffffffffffff1673ffffffffffffffffffffffffffffffffffffffff1681526020019081526020015f205f9054906101000a900473ffffffffffffffffffffffffffffffffffffffff16915080806117b790612e9e565b91505061164a565b600173ffffffffffffffffffffffffffffffffffffffff168273ffffffffffffffffffffffffffffffffffffffff16141580156117fb57505f81115b1561182a578260018261180e9190612f7a565b8151811061181f5761181e612e1c565b5b602002602001015191505b8083525094509492505050565b5f73ffffffffffffffffffffffffffffffffffffffff168173ffffffffffffffffffffffffffffffffffffffff16148061189d5750600173ffffffffffffffffffffffffffffffffffffffff168173ffffffffffffffffffffffffffffffffffffffff16145b156118df57816040517f7c84ecfb0000000000000000000000000000000000000000000000000000000081526004016118d69190612e58565b60405180910390fd5b8073ffffffffffffffffffffffffffffffffffffffff16845f015f8473ffffffffffffffffffffffffffffffffffffffff1673ffffffffffffffffffffffffffffffffffffffff1681526020019081526020015f205f8573ffffffffffffffffffffffffffffffffffffffff1673ffffffffffffffffffffffffffffffffffffffff1681526020019081526020015f205f9054906101000a900473ffffffffffffffffffffffffffffffffffffffff1673ffffffffffffffffffffffffffffffffffffffff16146119e757806040517f7c84ecfb0000000000000000000000000000000000000000000000000000000081526004016119de9190612e58565b60405180910390fd5b835f015f8273ffffffffffffffffffffffffffffffffffffffff1673ffffffffffffffffffffffffffffffffffffffff1681526020019081526020015f205f8473ffffffffffffffffffffffffffffffffffffffff1673ffffffffffffffffffffffffffffffffffffffff1681526020019081526020015f205f9054906101000a900473ffffffffffffffffffffffffffffffffffffffff16845f015f8473ffffffffffffffffffffffffffffffffffffffff1673ffffffffffffffffffffffffffffffffffffffff1681526020019081526020015f205f8573ffffffffffffffffffffffffffffffffffffffff1673ffffffffffffffffffffffffffffffffffffffff1681526020019081526020015f205f6101000a81548173ffffffffffffffffffffffffffffffffffffffff021916908373ffffffffffffffffffffffffffffffffffffffff1602179055505f845f015f8373ffffffffffffffffffffffffffffffffffffffff1673ffffffffffffffffffffffffffffffffffffffff1681526020019081526020015f205f8573ffffffffffffffffffffffffffffffffffffffff1673ffffffffffffffffffffffffffffffffffffffff1681526020019081526020015f205f6101000a81548173ffffffffffffffffffffffffffffffffffffffff021916908373ffffffffffffffffffffffffffffffffffffffff16021790555050505050565b5f816020527b19457468657265756d205369676e6564204d6573736167653a0a33325f52603c6004209050919050565b60605f835190505f604182611c389190612fda565b90508067ffffffffffffffff811115611c5457611c53612c8a565b5b604051908082528060200260200182016040528015611c825781602001602082028036833780820191505090505b50925083811015611cbf576040517f8baa579f00000000000000000000000000000000000000000000000000000000815260040160405180910390fd5b5f805b82811015611de0575f805f80611cd88b866121fd565b9250925092505f8360ff1603611cfc57611cf58c8c84848c612229565b9350611d3f565b601e8360ff161115611d2f57611d28611d148d611bf3565b600485611d219190613016565b8484612348565b9350611d3e565b611d3b8c848484612348565b93505b5b5f73ffffffffffffffffffffffffffffffffffffffff168473ffffffffffffffffffffffffffffffffffffffff1614611d81578580611d7d90612e9e565b9650505b83898681518110611d9557611d94612e1c565b5b602002602001019073ffffffffffffffffffffffffffffffffffffffff16908173ffffffffffffffffffffffffffffffffffffffff1681525050505050508080600101915050611cc2565b5084811015611e1b576040517f8baa579f00000000000000000000000000000000000000000000000000000000815260040160405180910390fd5b5050509392505050565b611e36611e3182611fc9565b612382565b50565b611e4a611e4582611fc9565b6125cc565b50565b5f80611e78611e5b85611fc9565b8473ffffffffffffffffffffffffffffffffffffffff165f612620565b80925081935050509250929050565b5f8060015f8773ffffffffffffffffffffffffffffffffffffffff1673ffffffffffffffffffffffffffffffffffffffff1681526020019081526020015f205490505f8103611ed9575f915050611fc1565b5f611f30611ee687611bf3565b86868080601f0160208091040260200160405190810160405280939291908181526020018383808284375f81840152601f19601f8201169050808301925050505050505084611c23565b9050611f3b81611e25565b611f4481611e39565b5f80825190505f5b81811015611fa457611f838a858381518110611f6b57611f6a612e1c565b5b60200260200101515f6120f29092919063ffffffff16565b15611f97578280611f9390612e9e565b9350505b8080600101915050611f4c565b50838210611fb9576001945050505050611fc1565b5f9450505050505b949350505050565b6060819050919050565b5f60019050600282511061201b57815160051b82016020830192505b60011561201957825160208401935083518110925081841883026120135750612019565b50611fef565b505b919050565b5f8073ffffffffffffffffffffffffffffffffffffffff16835f015f600173ffffffffffffffffffffffffffffffffffffffff1673ffffffffffffffffffffffffffffffffffffffff1681526020019081526020015f205f8473ffffffffffffffffffffffffffffffffffffffff1673ffffffffffffffffffffffffffffffffffffffff1681526020019081526020015f205f9054906101000a900473ffffffffffffffffffffffffffffffffffffffff1673ffffffffffffffffffffffffffffffffffffffff161415905092915050565b5f8173ffffffffffffffffffffffffffffffffffffffff16600173ffffffffffffffffffffffffffffffffffffffff16141580156121f457505f73ffffffffffffffffffffffffffffffffffffffff16845f015f8473ffffffffffffffffffffffffffffffffffffffff1673ffffffffffffffffffffffffffffffffffffffff1681526020019081526020015f205f8573ffffffffffffffffffffffffffffffffffffffff1673ffffffffffffffffffffffffffffffffffffffff1681526020019081526020015f205f9054906101000a900473ffffffffffffffffffffffffffffffffffffffff1673ffffffffffffffffffffffffffffffffffffffff1614155b90509392505050565b5f805f83604102602081018601519250604081018601519150606081018601515f1a9350509250925092565b5f835f1c90505f602084870101519050826020855f1c8361224a919061304a565b612254919061304a565b1115612263575f91505061233f565b60606020858801019050631626ba7e60e01b7bffffffffffffffffffffffffffffffffffffffffffffffffffffffff19168373ffffffffffffffffffffffffffffffffffffffff16631626ba7e8a846040518363ffffffff1660e01b81526004016122cf9291906130de565b602060405180830381865afa1580156122ea573d5f803e3d5ffd5b505050506040513d601f19601f8201168201806040525081019061230e9190613136565b7bffffffffffffffffffffffffffffffffffffffffffffffffffffffff19161461233c575f9250505061233f565b50505b95945050505050565b5f604051855f5260ff851660205283604052826060526020604060805f60015afa505f6060523d6060185191508060405250949350505050565b61251c565b5f808290508391509250929050565b805182518252808352505050565b61018082840311612429576020820180518351106123c7576123c68382612396565b5b5b6001156124205760208101905083811161242057805182820180518281116123f25750505061241b565b5b600115612411578060208301528482019150815190508281116123f3575b8260208301525050505b6123c8565b5050505061251a565b81601f1683830160061c60051b01825181518082106124515761244c8183612387565b915091505b855180821061247f576124648183612387565b9150915081831061247e576124798284612387565b925092505b5b8087528184528286525050508051849150835b6001156124e7575b6001156124b0578060200190508051821161249a575b825b6001156124c7578085019050805183106124b2575b8093508382106124d757506124e7565b6124e18483612396565b50612492565b5050836020820114612502576125018460208301846123a4565b5b828114612515576125148184846123a4565b5b505050505b565b8051600281106125c857601f19602083018260051b8401805b8051818501511161254a578084019050612535565b82811161255a57505050506125c8565b8190505b8051818501511061257357808401905061255e565b8281116125b2575b6001156125a95782518251845280835282850192506020840193508284106125a357506125a9565b5061257b565b505050506125c8565b5f86526125c08284866123a4565b848652505050505b5050565b600281511061261d576020810160408201600183510160051b83015b60011561261157815183511461260357602083019250815183525b6020820191508082036125e8575b83830360051c84525050505b50565b5f805f19600186515f87870197505b6001156126715781830160011c94508460051b89015187019050878114828411176126715780881161266557838501915061266c565b6001850192505b61262f565b8781149550841515905080848601029450808616955050505050935093915050565b5f81519050919050565b5f82825260208201905092915050565b8281835e5f83830152505050565b5f601f19601f8301169050919050565b5f6126d582612693565b6126df818561269d565b93506126ef8185602086016126ad565b6126f8816126bb565b840191505092915050565b5f6020820190508181035f83015261271b81846126cb565b905092915050565b5f604051905090565b5f80fd5b5f80fd5b5f80fd5b5f80fd5b5f80fd5b5f8083601f84011261275557612754612734565b5b8235905067ffffffffffffffff81111561277257612771612738565b5b60208301915083600182028301111561278e5761278d61273c565b5b9250929050565b5f80602083850312156127ab576127aa61272c565b5b5f83013567ffffffffffffffff8111156127c8576127c7612730565b5b6127d485828601612740565b92509250509250929050565b5f73ffffffffffffffffffffffffffffffffffffffff82169050919050565b5f612809826127e0565b9050919050565b612819816127ff565b8114612823575f80fd5b50565b5f8135905061283481612810565b92915050565b5f6020828403121561284f5761284e61272c565b5b5f61285c84828501612826565b91505092915050565b5f819050919050565b61287781612865565b8114612881575f80fd5b50565b5f813590506128928161286e565b92915050565b5f805f805f606086880312156128b1576128b061272c565b5b5f6128be88828901612884565b955050602086013567ffffffffffffffff8111156128df576128de612730565b5b6128eb88828901612740565b9450945050604086013567ffffffffffffffff81111561290e5761290d612730565b5b61291a88828901612740565b92509250509295509295909350565b5f8115159050919050565b61293d81612929565b82525050565b5f6020820190506129565f830184612934565b92915050565b5f819050919050565b61296e8161295c565b8114612978575f80fd5b50565b5f8135905061298981612965565b92915050565b5f602082840312156129a4576129a361272c565b5b5f6129b18482850161297b565b91505092915050565b5f80fd5b5f61012082840312156129d4576129d36129ba565b5b81905092915050565b5f80604083850312156129f3576129f261272c565b5b5f83013567ffffffffffffffff811115612a1057612a0f612730565b5b612a1c858286016129be565b9250506020612a2d85828601612884565b9150509250929050565b5f819050919050565b5f612a5a612a55612a508461295c565b612a37565b61295c565b9050919050565b612a6a81612a40565b82525050565b5f602082019050612a835f830184612a61565b92915050565b612a928161295c565b82525050565b5f602082019050612aab5f830184612a89565b92915050565b5f805f8060608587031215612ac957612ac861272c565b5b5f612ad687828801612826565b9450506020612ae787828801612884565b935050604085013567ffffffffffffffff811115612b0857612b07612730565b5b612b1487828801612740565b925092505092959194509250565b5f7fffffffff0000000000000000000000000000000000000000000000000000000082169050919050565b612b5681612b22565b82525050565b5f602082019050612b6f5f830184612b4d565b92915050565b5f8060408385031215612b8b57612b8a61272c565b5b5f612b9885828601612826565b9250506020612ba985828601612826565b9150509250929050565b5f81519050919050565b5f82825260208201905092915050565b5f819050602082019050919050565b612be5816127ff565b82525050565b5f612bf68383612bdc565b60208301905092915050565b5f602082019050919050565b5f612c1882612bb3565b612c228185612bbd565b9350612c2d83612bcd565b805f5b83811015612c5d578151612c448882612beb565b9750612c4f83612c02565b925050600181019050612c30565b5085935050505092915050565b5f6020820190508181035f830152612c828184612c0e565b905092915050565b7f4e487b71000000000000000000000000000000000000000000000000000000005f52604160045260245ffd5b612cc0826126bb565b810181811067ffffffffffffffff82111715612cdf57612cde612c8a565b5b80604052505050565b5f612cf1612723565b9050612cfd8282612cb7565b919050565b5f67ffffffffffffffff821115612d1c57612d1b612c8a565b5b602082029050602081019050919050565b5f612d3f612d3a84612d02565b612ce8565b90508083825260208201905060208402830185811115612d6257612d6161273c565b5b835b81811015612d8b5780612d778882612826565b845260208401935050602081019050612d64565b5050509392505050565b5f82601f830112612da957612da8612734565b5b8135612db9848260208601612d2d565b91505092915050565b5f8060408385031215612dd857612dd761272c565b5b5f612de58582860161297b565b925050602083013567ffffffffffffffff811115612e0657612e05612730565b5b612e1285828601612d95565b9150509250929050565b7f4e487b71000000000000000000000000000000000000000000000000000000005f52603260045260245ffd5b612e52816127ff565b82525050565b5f602082019050612e6b5f830184612e49565b92915050565b7f4e487b71000000000000000000000000000000000000000000000000000000005f52601160045260245ffd5b5f612ea88261295c565b91507fffffffffffffffffffffffffffffffffffffffffffffffffffffffffffffffff8203612eda57612ed9612e71565b5b600182019050919050565b5f80fd5b5f80fd5b5f80fd5b5f8083356001602003843603038112612f0d57612f0c612ee5565b5b80840192508235915067ffffffffffffffff821115612f2f57612f2e612ee9565b5b602083019250600182023603831315612f4b57612f4a612eed565b5b509250929050565b5f612f5d8261295c565b91505f8203612f6f57612f6e612e71565b5b600182039050919050565b5f612f848261295c565b9150612f8f8361295c565b9250828203905081811115612fa757612fa6612e71565b5b92915050565b7f4e487b71000000000000000000000000000000000000000000000000000000005f52601260045260245ffd5b5f612fe48261295c565b9150612fef8361295c565b925082612fff57612ffe612fad565b5b828204905092915050565b5f60ff82169050919050565b5f6130208261300a565b915061302b8361300a565b9250828203905060ff81111561304457613043612e71565b5b92915050565b5f6130548261295c565b915061305f8361295c565b925082820190508082111561307757613076612e71565b5b92915050565b61308681612865565b82525050565b5f81519050919050565b5f82825260208201905092915050565b5f6130b08261308c565b6130ba8185613096565b93506130ca8185602086016126ad565b6130d3816126bb565b840191505092915050565b5f6040820190506130f15f83018561307d565b818103602083015261310381846130a6565b90509392505050565b61311581612b22565b811461311f575f80fd5b50565b5f815190506131308161310c565b92915050565b5f6020828403121561314b5761314a61272c565b5b5f61315884828501613122565b9150509291505056fea2646970667358221220493d4006cc3e4f565ab1533812de83a1c1136291b252a714c047eee0844fefea64736f6c63430008190033","linkReferences":{}},"methodIdentifiers":{"addOwner(address)":"7065cb48","getOwners(address)":"fd8b84b1","isInitialized(address)":"d60b347f","isModuleType(uint256)":"ecd05961","isValidSignatureWithSender(address,bytes32,bytes)":"f551e2ee","name()":"06fdde03","onInstall(bytes)":"6d61fe70","onUninstall(bytes)":"8a91b0e3","ownerCount(address)":"ccfdec8c","removeOwner(address,address)":"fbe5ce0a","setThreshold(uint256)":"960bfe04","threshold(address)":"c86ec2bf","validateSignatureWithData(bytes32,bytes,bytes)":"940d3840","validateUserOp((address,uint256,bytes,bytes,bytes32,uint256,bytes32,bytes,bytes),bytes32)":"97003203","version()":"54fd4d50"},"id":52}