{"abi":[{"type":"function","name":"addGuardian","inputs":[{"name":"guardian","type":"address","internalType":"address"}],"outputs":[],"stateMutability":"nonpayable"},{"type":"function","name":"getGuardians","inputs":[{"name":"account","type":"address","internalType":"address"}],"outputs":[{"name":"guardiansArray","type":"address[]","internalType":"address[]"}],"stateMutability":"view"},{"type":"function","name":"guardianCount","inputs":[{"name":"","type":"address","internalType":"address"}],"outputs":[{"name":"","type":"uint256","internalType":"uint256"}],"stateMutability":"view"},{"type":"function","name":"isInitialized","inputs":[{"name":"smartAccount","type":"address","internalType":"address"}],"outputs":[{"name":"","type":"bool","internalType":"bool"}],"stateMutability":"view"},{"type":"function","name":"isModuleType","inputs":[{"name":"typeID","type":"uint256","internalType":"uint256"}],"outputs":[{"name":"","type":"bool","internalType":"bool"}],"stateMutability":"pure"},{"type":"function","name":"isValidSignatureWithSender","inputs":[{"name":"","type":"address","internalType":"address"},{"name":"","type":"bytes32","internalType":"bytes32"},{"name":"","type":"bytes","internalType":"bytes"}],"outputs":[{"name":"","type":"bytes4","internalType":"bytes4"}],"stateMutability":"pure"},{"type":"function","name":"name","inputs":[],"outputs":[{"name":"","type":"string","internalType":"string"}],"stateMutability":"pure"},{"type":"function","name":"onInstall","inputs":[{"name":"data","type":"bytes","internalType":"bytes"}],"outputs":[],"stateMutability":"nonpayable"},{"type":"function","name":"onUninstall","inputs":[{"name":"","type":"bytes","internalType":"bytes"}],"outputs":[],"stateMutability":"nonpayable"},{"type":"function","name":"removeGuardian","inputs":[{"name":"prevGuardian","type":"address","internalType":"address"},{"name":"guardian","type":"address","internalType":"address"}],"outputs":[],"stateMutability":"nonpayable"},{"type":"function","name":"setThreshold","inputs":[{"name":"_threshold","type":"uint256","internalType":"uint256"}],"outputs":[],"stateMutability":"nonpayable"},{"type":"function","name":"threshold","inputs":[{"name":"account","type":"address","internalType":"address"}],"outputs":[{"name":"","type":"uint256","internalType":"uint256"}],"stateMutability":"view"},{"type":"function","name":"validateUserOp","inputs":[{"name":"userOp","type":"tuple","internalType":"struct PackedUserOperation","components":[{"name":"sender","type":"address","internalType":"address"},{"name":"nonce","type":"uint256","internalType":"uint256"},{"name":"initCode","type":"bytes","internalType":"bytes"},{"name":"callData","type":"bytes","internalType":"bytes"},{"name":"accountGasLimits","type":"bytes32","internalType":"bytes32"},{"name":"preVerificationGas","type":"uint256","internalType":"uint256"},{"name":"gasFees","type":"bytes32","internalType":"bytes32"},{"name":"paymasterAndData","type":"bytes","internalType":"bytes"},{"name":"signature","type":"bytes","internalType":"bytes"}]},{"name":"userOpHash","type":"bytes32","internalType":"bytes32"}],"outputs":[{"name":"","type":"uint256","internalType":"ERC7579ValidatorBase.ValidationData"}],"stateMutability":"view"},{"type":"function","name":"version","inputs":[],"outputs":[{"name":"","type":"string","internalType":"string"}],"stateMutability":"pure"},{"type":"event","name":"GuardianAdded","inputs":[{"name":"account","type":"address","indexed":true,"internalType":"address"},{"name":"guardian","type":"address","indexed":false,"internalType":"address"}],"anonymous":false},{"type":"event","name":"GuardianRemoved","inputs":[{"name":"account","type":"address","indexed":true,"internalType":"address"},{"name":"guardian","type":"address","indexed":false,"internalType":"address"}],"anonymous":false},{"type":"event","name":"ModuleInitialized","inputs":[{"name":"account","type":"address","indexed":true,"internalType":"address"}],"anonymous":false},{"type":"event","name":"ModuleUninitialized","inputs":[{"name":"account","type":"address","indexed":true,"internalType":"address"}],"anonymous":false},{"type":"event","name":"ThresholdSet","inputs":[{"name":"account","type":"address","indexed":true,"internalType":"address"},{"name":"threshold","type":"uint256","indexed":false,"internalType":"uint256"}],"anonymous":false},{"type":"error","name":"CannotRemoveGuardian","inputs":[]},{"type":"error","name":"InvalidGuardian","inputs":[{"name":"guardian","type":"address","internalType":"address"}]},{"type":"error","name":"InvalidSignature","inputs":[]},{"type":"error","name":"InvalidThreshold","inputs":[]},{"type":"error","name":"LinkedList_AlreadyInitialized","inputs":[]},{"type":"error","name":"LinkedList_EntryAlreadyInList","inputs":[{"name":"entry","type":"address","internalType":"address"}]},{"type":"error","name":"LinkedList_InvalidEntry","inputs":[{"name":"entry","type":"address","internalType":"address"}]},{"type":"error","name":"LinkedList_InvalidPage","inputs":[]},{"type":"error","name":"MaxGuardiansReached","inputs":[]},{"type":"error","name":"ModuleAlreadyInitialized","inputs":[{"name":"smartAccount","type":"address","internalType":"address"}]},{"type":"error","name":"NotInitialized","inputs":[{"name":"smartAccount","type":"address","internalType":"address"}]},{"type":"error","name":"NotSortedAndUnique","inputs":[]},{"type":"error","name":"ThresholdNotSet","inputs":[]},{"type":"error","name":"UnsupportedOperation","inputs":[]}],"bytecode":{"object":"0x6080604052348015600e575f80fd5b5061355b8061001c5f395ff3fe608060405234801561000f575f80fd5b50600436106100e8575f3560e01c80639b27a90e1161008a578063d60b347f11610064578063d60b347f14610244578063ecd0596114610274578063f18858ab146102a4578063f551e2ee146102d4576100e8565b80639b27a90e146101dc578063a526d83b146101f8578063c86ec2bf14610214576100e8565b80636d61fe70116100c65780636d61fe70146101585780638a91b0e314610174578063960bfe041461019057806397003203146101ac576100e8565b806306fdde03146100ec5780635040fb761461010a57806354fd4d501461013a575b5f80fd5b6100f4610304565b6040516101019190612909565b60405180910390f35b610124600480360381019061011f9190612994565b610341565b60405161013191906129d7565b60405180910390f35b610142610356565b60405161014f9190612909565b60405180910390f35b610172600480360381019061016d9190612a51565b610393565b005b61018e60048036038101906101899190612a51565b61063c565b005b6101aa60048036038101906101a59190612ac6565b61071f565b005b6101c660048036038101906101c19190612b47565b6108b1565b6040516101d39190612bda565b60405180910390f35b6101f660048036038101906101f19190612bf3565b610bb4565b005b610212600480360381019061020d9190612994565b610d27565b005b61022e60048036038101906102299190612994565b610f15565b60405161023b91906129d7565b60405180910390f35b61025e60048036038101906102599190612994565b610f2a565b60405161026b9190612c4b565b60405180910390f35b61028e60048036038101906102899190612ac6565b610f73565b60405161029b9190612c4b565b60405180910390f35b6102be60048036038101906102b99190612994565b610f7f565b6040516102cb9190612d1b565b60405180910390f35b6102ee60048036038101906102e99190612d3b565b610fa4565b6040516102fb9190612de6565b60405180910390f35b60606040518060400160405280601781526020017f536f6369616c5265636f7665727956616c696461746f72000000000000000000815250905090565b6002602052805f5260405f205f915090505481565b60606040518060400160405280600581526020017f312e302e30000000000000000000000000000000000000000000000000000000815250905090565b5f8083838101906103a49190612f37565b915091506103b181610fd7565b6103e7576040517fe719027300000000000000000000000000000000000000000000000000000000815260040160405180910390fd5b5f8203610420576040517f34b46f4800000000000000000000000000000000000000000000000000000000815260040160405180910390fd5b5f815190508281101561045f576040517faabd5a0900000000000000000000000000000000000000000000000000000000815260040160405180910390fd5b5f339050602082111561049e576040517fdfc3481a00000000000000000000000000000000000000000000000000000000815260040160405180910390fd5b8160025f8373ffffffffffffffffffffffffffffffffffffffff1673ffffffffffffffffffffffffffffffffffffffff1681526020019081526020015f20819055508360015f8373ffffffffffffffffffffffffffffffffffffffff1673ffffffffffffffffffffffffffffffffffffffff1681526020019081526020015f2081905550610535815f610ff090919063ffffffff16565b5f5b828110156105f0575f84828151811061055357610552612f91565b5b602002602001015190505f73ffffffffffffffffffffffffffffffffffffffff168173ffffffffffffffffffffffffffffffffffffffff16036105cd57806040517ff38d406d0000000000000000000000000000000000000000000000000000000081526004016105c49190612fcd565b60405180910390fd5b6105e283825f6110ee9092919063ffffffff16565b508080600101915050610537565b508073ffffffffffffffffffffffffffffffffffffffff167f27b541a16df0902e262f34789782092ab25125513b8ed73608e802951771b92860405160405180910390a2505050505050565b5f339050610653815f6114ab90919063ffffffff16565b5f60015f8373ffffffffffffffffffffffffffffffffffffffff1673ffffffffffffffffffffffffffffffffffffffff1681526020019081526020015f20819055505f60025f8373ffffffffffffffffffffffffffffffffffffffff1673ffffffffffffffffffffffffffffffffffffffff1681526020019081526020015f20819055508073ffffffffffffffffffffffffffffffffffffffff167f9d00629762554452d03c3b45626436df6ca1c3795d05d04df882f6db481b1be060405160405180910390a2505050565b5f33905061072c81610f2a565b61076d57806040517ff91bd6f10000000000000000000000000000000000000000000000000000000081526004016107649190612fcd565b60405180910390fd5b5f82036107a6576040517faabd5a0900000000000000000000000000000000000000000000000000000000815260040160405180910390fd5b8160025f8373ffffffffffffffffffffffffffffffffffffffff1673ffffffffffffffffffffffffffffffffffffffff1681526020019081526020015f2054101561081d576040517faabd5a0900000000000000000000000000000000000000000000000000000000815260040160405180910390fd5b8160015f8373ffffffffffffffffffffffffffffffffffffffff1673ffffffffffffffffffffffffffffffffffffffff1681526020019081526020015f20819055508073ffffffffffffffffffffffffffffffffffffffff167ff7e18aa0532694077d6fc7df02e85d86b91ba964f958d1949d45c5776d36eb6e836040516108a591906129d7565b60405180910390a25050565b5f80835f0160208101906108c59190612994565b90505f60015f8373ffffffffffffffffffffffffffffffffffffffff1673ffffffffffffffffffffffffffffffffffffffff1681526020019081526020015f205490505f810361091a57600192505050610bae565b5f610980610927866116dd565b878061010001906109389190612ff2565b8080601f0160208091040260200160405190810160405280939291908181526020018383808284375f81840152601f19601f820116905080830192505050505050508461170d565b905061098b8161190f565b61099481611923565b5f805f90505b82518110156109f3576109d2858483815181106109ba576109b9612f91565b5b60200260200101515f6119379092919063ffffffff16565b156109e65781806109e290613081565b9250505b808060010191505061099a565b505f80888060600190610a069190612ff2565b5f90600492610a17939291906130d0565b90610a229190613120565b905063e9ae5c5360e01b7bffffffffffffffffffffffffffffffffffffffffffffffffffffffff1916817bffffffffffffffffffffffffffffffffffffffffffffffffffffffff191603610a9057610a89868a8060600190610a849190612ff2565b611a42565b9150610b83565b638dd7712f60e01b7bffffffffffffffffffffffffffffffffffffffffffffffffffffffff1916817bffffffffffffffffffffffffffffffffffffffffffffffffffffffff191603610b825763e9ae5c5360e01b7bffffffffffffffffffffffffffffffffffffffffffffffffffffffff1916898060600190610b139190612ff2565b600490600892610b25939291906130d0565b90610b309190613120565b7bffffffffffffffffffffffffffffffffffffffffffffffffffffffff191603610b8157610b7e868a8060600190610b689190612ff2565b6004908092610b79939291906130d0565b611a42565b91505b5b5b848310158015610b905750815b15610ba3575f9650505050505050610bae565b600196505050505050505b92915050565b5f33905060015f8273ffffffffffffffffffffffffffffffffffffffff1673ffffffffffffffffffffffffffffffffffffffff1681526020019081526020015f205460025f8373ffffffffffffffffffffffffffffffffffffffff1673ffffffffffffffffffffffffffffffffffffffff1681526020019081526020015f205403610c6b576040517f701b442200000000000000000000000000000000000000000000000000000000815260040160405180910390fd5b610c828184845f611b36909392919063ffffffff16565b60025f8273ffffffffffffffffffffffffffffffffffffffff1673ffffffffffffffffffffffffffffffffffffffff1681526020019081526020015f205f815480929190610ccf9061317e565b91905055508073ffffffffffffffffffffffffffffffffffffffff167fee943cdb81826d5909c559c6b1ae6908fcaf2dbc16c4b730346736b486283e8b83604051610d1a9190612fcd565b60405180910390a2505050565b5f339050610d3481610f2a565b610d7557806040517ff91bd6f1000000000000000000000000000000000000000000000000000000008152600401610d6c9190612fcd565b60405180910390fd5b5f73ffffffffffffffffffffffffffffffffffffffff168273ffffffffffffffffffffffffffffffffffffffff1603610de557816040517ff38d406d000000000000000000000000000000000000000000000000000000008152600401610ddc9190612fcd565b60405180910390fd5b602060025f8373ffffffffffffffffffffffffffffffffffffffff1673ffffffffffffffffffffffffffffffffffffffff1681526020019081526020015f205410610e5c576040517fdfc3481a00000000000000000000000000000000000000000000000000000000815260040160405180910390fd5b60025f8273ffffffffffffffffffffffffffffffffffffffff1673ffffffffffffffffffffffffffffffffffffffff1681526020019081526020015f205f815480929190610ea990613081565b9190505550610ec381835f6110ee9092919063ffffffff16565b8073ffffffffffffffffffffffffffffffffffffffff167fbc3292102fa77e083913064b282926717cdfaede4d35f553d66366c0a3da755a83604051610f099190612fcd565b60405180910390a25050565b6001602052805f5260405f205f915090505481565b5f8060015f8473ffffffffffffffffffffffffffffffffffffffff1673ffffffffffffffffffffffffffffffffffffffff1681526020019081526020015f205414159050919050565b5f600182149050919050565b6060610f9a82600160205f611ef2909392919063ffffffff16565b5080915050919050565b5f6040517f9ba6061b00000000000000000000000000000000000000000000000000000000815260040160405180910390fd5b5f610fe9610fe48361228a565b612294565b9050919050565b610ffa82826122e1565b15611031576040517f53c85e6600000000000000000000000000000000000000000000000000000000815260040160405180910390fd5b6001825f015f600173ffffffffffffffffffffffffffffffffffffffff1673ffffffffffffffffffffffffffffffffffffffff1681526020019081526020015f205f8373ffffffffffffffffffffffffffffffffffffffff1673ffffffffffffffffffffffffffffffffffffffff1681526020019081526020015f205f6101000a81548173ffffffffffffffffffffffffffffffffffffffff021916908373ffffffffffffffffffffffffffffffffffffffff1602179055505050565b5f73ffffffffffffffffffffffffffffffffffffffff168173ffffffffffffffffffffffffffffffffffffffff1614806111545750600173ffffffffffffffffffffffffffffffffffffffff168173ffffffffffffffffffffffffffffffffffffffff16145b1561119657806040517f7c84ecfb00000000000000000000000000000000000000000000000000000000815260040161118d9190612fcd565b60405180910390fd5b5f73ffffffffffffffffffffffffffffffffffffffff16835f015f8373ffffffffffffffffffffffffffffffffffffffff1673ffffffffffffffffffffffffffffffffffffffff1681526020019081526020015f205f8473ffffffffffffffffffffffffffffffffffffffff1673ffffffffffffffffffffffffffffffffffffffff1681526020019081526020015f205f9054906101000a900473ffffffffffffffffffffffffffffffffffffffff1673ffffffffffffffffffffffffffffffffffffffff161461129e57806040517f40d3d1a40000000000000000000000000000000000000000000000000000000081526004016112959190612fcd565b60405180910390fd5b825f015f600173ffffffffffffffffffffffffffffffffffffffff1673ffffffffffffffffffffffffffffffffffffffff1681526020019081526020015f205f8373ffffffffffffffffffffffffffffffffffffffff1673ffffffffffffffffffffffffffffffffffffffff1681526020019081526020015f205f9054906101000a900473ffffffffffffffffffffffffffffffffffffffff16835f015f8373ffffffffffffffffffffffffffffffffffffffff1673ffffffffffffffffffffffffffffffffffffffff1681526020019081526020015f205f8473ffffffffffffffffffffffffffffffffffffffff1673ffffffffffffffffffffffffffffffffffffffff1681526020019081526020015f205f6101000a81548173ffffffffffffffffffffffffffffffffffffffff021916908373ffffffffffffffffffffffffffffffffffffffff16021790555080835f015f600173ffffffffffffffffffffffffffffffffffffffff1673ffffffffffffffffffffffffffffffffffffffff1681526020019081526020015f205f8473ffffffffffffffffffffffffffffffffffffffff1673ffffffffffffffffffffffffffffffffffffffff1681526020019081526020015f205f6101000a81548173ffffffffffffffffffffffffffffffffffffffff021916908373ffffffffffffffffffffffffffffffffffffffff160217905550505050565b5f825f015f600173ffffffffffffffffffffffffffffffffffffffff1673ffffffffffffffffffffffffffffffffffffffff1681526020019081526020015f205f8373ffffffffffffffffffffffffffffffffffffffff1673ffffffffffffffffffffffffffffffffffffffff1681526020019081526020015f205f9054906101000a900473ffffffffffffffffffffffffffffffffffffffff1690505b5f73ffffffffffffffffffffffffffffffffffffffff168173ffffffffffffffffffffffffffffffffffffffff16146116d8575f819050835f015f8373ffffffffffffffffffffffffffffffffffffffff1673ffffffffffffffffffffffffffffffffffffffff1681526020019081526020015f205f8473ffffffffffffffffffffffffffffffffffffffff1673ffffffffffffffffffffffffffffffffffffffff1681526020019081526020015f205f9054906101000a900473ffffffffffffffffffffffffffffffffffffffff1691505f845f015f8373ffffffffffffffffffffffffffffffffffffffff1673ffffffffffffffffffffffffffffffffffffffff1681526020019081526020015f205f8573ffffffffffffffffffffffffffffffffffffffff1673ffffffffffffffffffffffffffffffffffffffff1681526020019081526020015f205f6101000a81548173ffffffffffffffffffffffffffffffffffffffff021916908373ffffffffffffffffffffffffffffffffffffffff16021790555050611549565b505050565b5f816020527b19457468657265756d205369676e6564204d6573736167653a0a33325f52603c6004209050919050565b60605f835190505f60418261172291906131d2565b90508067ffffffffffffffff81111561173e5761173d612dff565b5b60405190808252806020026020018201604052801561176c5781602001602082028036833780820191505090505b509250838110156117a9576040517f8baa579f00000000000000000000000000000000000000000000000000000000815260040160405180910390fd5b5f805b828110156118ca575f805f806117c28b866123b3565b9250925092505f8360ff16036117e6576117df8c8c84848c6123df565b9350611829565b601e8360ff161115611819576118126117fe8d6116dd565b60048561180b919061320e565b84846124fe565b9350611828565b6118258c8484846124fe565b93505b5b5f73ffffffffffffffffffffffffffffffffffffffff168473ffffffffffffffffffffffffffffffffffffffff161461186b57858061186790613081565b9650505b8389868151811061187f5761187e612f91565b5b602002602001019073ffffffffffffffffffffffffffffffffffffffff16908173ffffffffffffffffffffffffffffffffffffffff16815250505050505080806001019150506117ac565b5084811015611905576040517f8baa579f00000000000000000000000000000000000000000000000000000000815260040160405180910390fd5b5050509392505050565b61192061191b8261228a565b612538565b50565b61193461192f8261228a565b612782565b50565b5f8173ffffffffffffffffffffffffffffffffffffffff16600173ffffffffffffffffffffffffffffffffffffffff1614158015611a3957505f73ffffffffffffffffffffffffffffffffffffffff16845f015f8473ffffffffffffffffffffffffffffffffffffffff1673ffffffffffffffffffffffffffffffffffffffff1681526020019081526020015f205f8573ffffffffffffffffffffffffffffffffffffffff1673ffffffffffffffffffffffffffffffffffffffff1681526020019081526020015f205f9054906101000a900473ffffffffffffffffffffffffffffffffffffffff1673ffffffffffffffffffffffffffffffffffffffff1614155b90509392505050565b5f808383600490602492611a58939291906130d0565b90611a639190613242565b90505f611a6f826127d6565b9050611a7e815f60f81b6127df565b15611b29575f611a9f86866064908092611a9a939291906130d0565b61282f565b50505090508673ffffffffffffffffffffffffffffffffffffffff1663112d3a7d6001836040518363ffffffff1660e01b8152600401611ae09291906132d3565b602060405180830381865afa158015611afb573d5f803e3d5ffd5b505050506040513d601f19601f82011682018060405250810190611b1f9190613337565b9350505050611b2f565b5f925050505b9392505050565b5f73ffffffffffffffffffffffffffffffffffffffff168173ffffffffffffffffffffffffffffffffffffffff161480611b9c5750600173ffffffffffffffffffffffffffffffffffffffff168173ffffffffffffffffffffffffffffffffffffffff16145b15611bde57816040517f7c84ecfb000000000000000000000000000000000000000000000000000000008152600401611bd59190612fcd565b60405180910390fd5b8073ffffffffffffffffffffffffffffffffffffffff16845f015f8473ffffffffffffffffffffffffffffffffffffffff1673ffffffffffffffffffffffffffffffffffffffff1681526020019081526020015f205f8573ffffffffffffffffffffffffffffffffffffffff1673ffffffffffffffffffffffffffffffffffffffff1681526020019081526020015f205f9054906101000a900473ffffffffffffffffffffffffffffffffffffffff1673ffffffffffffffffffffffffffffffffffffffff1614611ce657806040517f7c84ecfb000000000000000000000000000000000000000000000000000000008152600401611cdd9190612fcd565b60405180910390fd5b835f015f8273ffffffffffffffffffffffffffffffffffffffff1673ffffffffffffffffffffffffffffffffffffffff1681526020019081526020015f205f8473ffffffffffffffffffffffffffffffffffffffff1673ffffffffffffffffffffffffffffffffffffffff1681526020019081526020015f205f9054906101000a900473ffffffffffffffffffffffffffffffffffffffff16845f015f8473ffffffffffffffffffffffffffffffffffffffff1673ffffffffffffffffffffffffffffffffffffffff1681526020019081526020015f205f8573ffffffffffffffffffffffffffffffffffffffff1673ffffffffffffffffffffffffffffffffffffffff1681526020019081526020015f205f6101000a81548173ffffffffffffffffffffffffffffffffffffffff021916908373ffffffffffffffffffffffffffffffffffffffff1602179055505f845f015f8373ffffffffffffffffffffffffffffffffffffffff1673ffffffffffffffffffffffffffffffffffffffff1681526020019081526020015f205f8573ffffffffffffffffffffffffffffffffffffffff1673ffffffffffffffffffffffffffffffffffffffff1681526020019081526020015f205f6101000a81548173ffffffffffffffffffffffffffffffffffffffff021916908373ffffffffffffffffffffffffffffffffffffffff16021790555050505050565b60605f600173ffffffffffffffffffffffffffffffffffffffff168473ffffffffffffffffffffffffffffffffffffffff1614158015611f3a5750611f38868686611937565b155b15611f7c57836040517f7c84ecfb000000000000000000000000000000000000000000000000000000008152600401611f739190612fcd565b60405180910390fd5b5f8303611fb5576040517ff725081700000000000000000000000000000000000000000000000000000000815260040160405180910390fd5b8267ffffffffffffffff811115611fcf57611fce612dff565b5b604051908082528060200260200182016040528015611ffd5781602001602082028036833780820191505090505b5091505f865f015f8673ffffffffffffffffffffffffffffffffffffffff1673ffffffffffffffffffffffffffffffffffffffff1681526020019081526020015f205f8773ffffffffffffffffffffffffffffffffffffffff1673ffffffffffffffffffffffffffffffffffffffff1681526020019081526020015f205f9054906101000a900473ffffffffffffffffffffffffffffffffffffffff1691505b5f73ffffffffffffffffffffffffffffffffffffffff168273ffffffffffffffffffffffffffffffffffffffff16141580156121065750600173ffffffffffffffffffffffffffffffffffffffff168273ffffffffffffffffffffffffffffffffffffffff1614155b801561211157508381105b15612212578183828151811061212a57612129612f91565b5b602002602001019073ffffffffffffffffffffffffffffffffffffffff16908173ffffffffffffffffffffffffffffffffffffffff1681525050865f015f8373ffffffffffffffffffffffffffffffffffffffff1673ffffffffffffffffffffffffffffffffffffffff1681526020019081526020015f205f8773ffffffffffffffffffffffffffffffffffffffff1673ffffffffffffffffffffffffffffffffffffffff1681526020019081526020015f205f9054906101000a900473ffffffffffffffffffffffffffffffffffffffff169150808061220a90613081565b91505061209d565b600173ffffffffffffffffffffffffffffffffffffffff168273ffffffffffffffffffffffffffffffffffffffff161415801561224e57505f81115b1561227d57826001826122619190613362565b8151811061227257612271612f91565b5b602002602001015191505b8083525094509492505050565b6060819050919050565b5f6001905060028251106122dc57815160051b82016020830192505b6001156122da57825160208401935083518110925081841883026122d457506122da565b506122b0565b505b919050565b5f8073ffffffffffffffffffffffffffffffffffffffff16835f015f600173ffffffffffffffffffffffffffffffffffffffff1673ffffffffffffffffffffffffffffffffffffffff1681526020019081526020015f205f8473ffffffffffffffffffffffffffffffffffffffff1673ffffffffffffffffffffffffffffffffffffffff1681526020019081526020015f205f9054906101000a900473ffffffffffffffffffffffffffffffffffffffff1673ffffffffffffffffffffffffffffffffffffffff161415905092915050565b5f805f83604102602081018601519250604081018601519150606081018601515f1a9350509250925092565b5f835f1c90505f602084870101519050826020855f1c836124009190613395565b61240a9190613395565b1115612419575f9150506124f5565b60606020858801019050631626ba7e60e01b7bffffffffffffffffffffffffffffffffffffffffffffffffffffffff19168373ffffffffffffffffffffffffffffffffffffffff16631626ba7e8a846040518363ffffffff1660e01b8152600401612485929190613419565b602060405180830381865afa1580156124a0573d5f803e3d5ffd5b505050506040513d601f19601f820116820180604052508101906124c49190613471565b7bffffffffffffffffffffffffffffffffffffffffffffffffffffffff1916146124f2575f925050506124f5565b50505b95945050505050565b5f604051855f5260ff851660205283604052826060526020604060805f60015afa505f6060523d6060185191508060405250949350505050565b6126d2565b5f808290508391509250929050565b805182518252808352505050565b610180828403116125df5760208201805183511061257d5761257c838261254c565b5b5b6001156125d6576020810190508381116125d657805182820180518281116125a8575050506125d1565b5b6001156125c7578060208301528482019150815190508281116125a9575b8260208301525050505b61257e565b505050506126d0565b81601f1683830160061c60051b018251815180821061260757612602818361253d565b915091505b85518082106126355761261a818361253d565b915091508183106126345761262f828461253d565b925092505b5b8087528184528286525050508051849150835b60011561269d575b6001156126665780602001905080518211612650575b825b60011561267d57808501905080518310612668575b80935083821061268d575061269d565b612697848361254c565b50612648565b50508360208201146126b8576126b784602083018461255a565b5b8281146126cb576126ca81848461255a565b5b505050505b565b80516002811061277e57601f19602083018260051b8401805b805181850151116127005780840190506126eb565b828111612710575050505061277e565b8190505b80518185015110612729578084019050612714565b828111612768575b60011561275f578251825184528083528285019250602084019350828410612759575061275f565b50612731565b5050505061277e565b5f865261277682848661255a565b848652505050505b5050565b60028151106127d3576020810160408201600183510160051b83015b6001156127c75781518351146127b957602083019250815183525b60208201915080820361279e575b83830360051c84525050505b50565b5f819050919050565b5f817effffffffffffffffffffffffffffffffffffffffffffffffffffffffffffff1916837effffffffffffffffffffffffffffffffffffffffffffffffffffffffffffff191614905092915050565b5f80365f85855f90601492612846939291906130d0565b9061285191906134c7565b60601c9350858560149060349261286a939291906130d0565b906128759190613242565b5f1c92508585603490809261288c939291906130d0565b9150915092959194509250565b5f81519050919050565b5f82825260208201905092915050565b8281835e5f83830152505050565b5f601f19601f8301169050919050565b5f6128db82612899565b6128e581856128a3565b93506128f58185602086016128b3565b6128fe816128c1565b840191505092915050565b5f6020820190508181035f83015261292181846128d1565b905092915050565b5f604051905090565b5f80fd5b5f80fd5b5f73ffffffffffffffffffffffffffffffffffffffff82169050919050565b5f6129638261293a565b9050919050565b61297381612959565b811461297d575f80fd5b50565b5f8135905061298e8161296a565b92915050565b5f602082840312156129a9576129a8612932565b5b5f6129b684828501612980565b91505092915050565b5f819050919050565b6129d1816129bf565b82525050565b5f6020820190506129ea5f8301846129c8565b92915050565b5f80fd5b5f80fd5b5f80fd5b5f8083601f840112612a1157612a106129f0565b5b8235905067ffffffffffffffff811115612a2e57612a2d6129f4565b5b602083019150836001820283011115612a4a57612a496129f8565b5b9250929050565b5f8060208385031215612a6757612a66612932565b5b5f83013567ffffffffffffffff811115612a8457612a83612936565b5b612a90858286016129fc565b92509250509250929050565b612aa5816129bf565b8114612aaf575f80fd5b50565b5f81359050612ac081612a9c565b92915050565b5f60208284031215612adb57612ada612932565b5b5f612ae884828501612ab2565b91505092915050565b5f80fd5b5f6101208284031215612b0b57612b0a612af1565b5b81905092915050565b5f819050919050565b612b2681612b14565b8114612b30575f80fd5b50565b5f81359050612b4181612b1d565b92915050565b5f8060408385031215612b5d57612b5c612932565b5b5f83013567ffffffffffffffff811115612b7a57612b79612936565b5b612b8685828601612af5565b9250506020612b9785828601612b33565b9150509250929050565b5f819050919050565b5f612bc4612bbf612bba846129bf565b612ba1565b6129bf565b9050919050565b612bd481612baa565b82525050565b5f602082019050612bed5f830184612bcb565b92915050565b5f8060408385031215612c0957612c08612932565b5b5f612c1685828601612980565b9250506020612c2785828601612980565b9150509250929050565b5f8115159050919050565b612c4581612c31565b82525050565b5f602082019050612c5e5f830184612c3c565b92915050565b5f81519050919050565b5f82825260208201905092915050565b5f819050602082019050919050565b612c9681612959565b82525050565b5f612ca78383612c8d565b60208301905092915050565b5f602082019050919050565b5f612cc982612c64565b612cd38185612c6e565b9350612cde83612c7e565b805f5b83811015612d0e578151612cf58882612c9c565b9750612d0083612cb3565b925050600181019050612ce1565b5085935050505092915050565b5f6020820190508181035f830152612d338184612cbf565b905092915050565b5f805f8060608587031215612d5357612d52612932565b5b5f612d6087828801612980565b9450506020612d7187828801612b33565b935050604085013567ffffffffffffffff811115612d9257612d91612936565b5b612d9e878288016129fc565b925092505092959194509250565b5f7fffffffff0000000000000000000000000000000000000000000000000000000082169050919050565b612de081612dac565b82525050565b5f602082019050612df95f830184612dd7565b92915050565b7f4e487b71000000000000000000000000000000000000000000000000000000005f52604160045260245ffd5b612e35826128c1565b810181811067ffffffffffffffff82111715612e5457612e53612dff565b5b80604052505050565b5f612e66612929565b9050612e728282612e2c565b919050565b5f67ffffffffffffffff821115612e9157612e90612dff565b5b602082029050602081019050919050565b5f612eb4612eaf84612e77565b612e5d565b90508083825260208201905060208402830185811115612ed757612ed66129f8565b5b835b81811015612f005780612eec8882612980565b845260208401935050602081019050612ed9565b5050509392505050565b5f82601f830112612f1e57612f1d6129f0565b5b8135612f2e848260208601612ea2565b91505092915050565b5f8060408385031215612f4d57612f4c612932565b5b5f612f5a85828601612ab2565b925050602083013567ffffffffffffffff811115612f7b57612f7a612936565b5b612f8785828601612f0a565b9150509250929050565b7f4e487b71000000000000000000000000000000000000000000000000000000005f52603260045260245ffd5b612fc781612959565b82525050565b5f602082019050612fe05f830184612fbe565b92915050565b5f80fd5b5f80fd5b5f80fd5b5f808335600160200384360303811261300e5761300d612fe6565b5b80840192508235915067ffffffffffffffff8211156130305761302f612fea565b5b60208301925060018202360383131561304c5761304b612fee565b5b509250929050565b7f4e487b71000000000000000000000000000000000000000000000000000000005f52601160045260245ffd5b5f61308b826129bf565b91507fffffffffffffffffffffffffffffffffffffffffffffffffffffffffffffffff82036130bd576130bc613054565b5b600182019050919050565b5f80fd5b5f80fd5b5f80858511156130e3576130e26130c8565b5b838611156130f4576130f36130cc565b5b6001850283019150848603905094509492505050565b5f82905092915050565b5f82821b905092915050565b5f61312b838361310a565b826131368135612dac565b92506004821015613176576131717fffffffff0000000000000000000000000000000000000000000000000000000083600403600802613114565b831692505b505092915050565b5f613188826129bf565b91505f820361319a57613199613054565b5b600182039050919050565b7f4e487b71000000000000000000000000000000000000000000000000000000005f52601260045260245ffd5b5f6131dc826129bf565b91506131e7836129bf565b9250826131f7576131f66131a5565b5b828204905092915050565b5f60ff82169050919050565b5f61321882613202565b915061322383613202565b9250828203905060ff81111561323c5761323b613054565b5b92915050565b5f61324d838361310a565b826132588135612b14565b92506020821015613298576132937fffffffffffffffffffffffffffffffffffffffffffffffffffffffffffffffff83602003600802613114565b831692505b505092915050565b5f82825260208201905092915050565b50565b5f6132be5f836132a0565b91506132c9826132b0565b5f82019050919050565b5f6060820190506132e65f8301856129c8565b6132f36020830184612fbe565b8181036040830152613304816132b3565b90509392505050565b61331681612c31565b8114613320575f80fd5b50565b5f815190506133318161330d565b92915050565b5f6020828403121561334c5761334b612932565b5b5f61335984828501613323565b91505092915050565b5f61336c826129bf565b9150613377836129bf565b925082820390508181111561338f5761338e613054565b5b92915050565b5f61339f826129bf565b91506133aa836129bf565b92508282019050808211156133c2576133c1613054565b5b92915050565b6133d181612b14565b82525050565b5f81519050919050565b5f6133eb826133d7565b6133f581856132a0565b93506134058185602086016128b3565b61340e816128c1565b840191505092915050565b5f60408201905061342c5f8301856133c8565b818103602083015261343e81846133e1565b90509392505050565b61345081612dac565b811461345a575f80fd5b50565b5f8151905061346b81613447565b92915050565b5f6020828403121561348657613485612932565b5b5f6134938482850161345d565b91505092915050565b5f7fffffffffffffffffffffffffffffffffffffffff00000000000000000000000082169050919050565b5f6134d2838361310a565b826134dd813561349c565b9250601482101561351d576135187fffffffffffffffffffffffffffffffffffffffff00000000000000000000000083601403600802613114565b831692505b50509291505056fea2646970667358221220fc25a37217c06d2c4ef8d4b41747b86f92520486677e483cd38898b0d75b1ed664736f6c63430008190033","linkReferences":{}},"methodIdentifiers":{"addGuardian(address)":"a526d83b","getGuardians(address)":"f18858ab","guardianCount(address)":"5040fb76","isInitialized(address)":"d60b347f","isModuleType(uint256)":"ecd05961","isValidSignatureWithSender(address,bytes32,bytes)":"f551e2ee","name()":"06fdde03","onInstall(bytes)":"6d61fe70","onUninstall(bytes)":"8a91b0e3","removeGuardian(address,address)":"9b27a90e","setThreshold(uint256)":"960bfe04","threshold(address)":"c86ec2bf","validateUserOp((address,uint256,bytes,bytes,bytes32,uint256,bytes32,bytes,bytes),bytes32)":"97003203","version()":"54fd4d50"},"id":64}